{
  "src/MainContract.sol": {
    "MainContract": {
      "abi": [
        {
          "type": "constructor",
          "inputs": [
            {
              "name": "_usdtTokenAddress",
              "type": "address",
              "internalType": "address"
            }
          ],
          "stateMutability": "nonpayable"
        },
        {
          "type": "function",
          "name": "cleanOutdatedProposals",
          "inputs": [
            {
              "name": "proposalId",
              "type": "uint256",
              "internalType": "uint256"
            }
          ],
          "outputs": [],
          "stateMutability": "nonpayable"
        },
        {
          "type": "function",
          "name": "companyExecutingProposal",
          "inputs": [
            {
              "name": "proposalId",
              "type": "uint256",
              "internalType": "uint256"
            }
          ],
          "outputs": [],
          "stateMutability": "nonpayable"
        },
        {
          "type": "function",
          "name": "companyMakeDecision",
          "inputs": [
            {
              "name": "proposalId",
              "type": "uint256",
              "internalType": "uint256"
            },
            {
              "name": "decision",
              "type": "uint8",
              "internalType": "enum MainContract.Decision"
            },
            {
              "name": "fundingGoal",
              "type": "uint256",
              "internalType": "uint256"
            },
            {
              "name": "deadline",
              "type": "uint256",
              "internalType": "uint256"
            }
          ],
          "outputs": [],
          "stateMutability": "nonpayable"
        },
        {
          "type": "function",
          "name": "createProposal",
          "inputs": [
            {
              "name": "toCompanyAddress",
              "type": "address",
              "internalType": "address"
            },
            {
              "name": "proposalURI",
              "type": "string",
              "internalType": "string"
            }
          ],
          "outputs": [],
          "stateMutability": "nonpayable"
        },
        {
          "type": "function",
          "name": "currentProposalId",
          "inputs": [],
          "outputs": [
            {
              "name": "",
              "type": "uint256",
              "internalType": "uint256"
            }
          ],
          "stateMutability": "view"
        },
        {
          "type": "function",
          "name": "fundProposal",
          "inputs": [
            {
              "name": "proposalId",
              "type": "uint256",
              "internalType": "uint256"
            },
            {
              "name": "fundingAmount",
              "type": "uint256",
              "internalType": "uint256"
            }
          ],
          "outputs": [],
          "stateMutability": "nonpayable"
        },
        {
          "type": "function",
          "name": "lastProposalSerialNumber",
          "inputs": [
            {
              "name": "",
              "type": "address",
              "internalType": "address"
            }
          ],
          "outputs": [
            {
              "name": "",
              "type": "uint256",
              "internalType": "uint256"
            }
          ],
          "stateMutability": "view"
        },
        {
          "type": "function",
          "name": "owner",
          "inputs": [],
          "outputs": [
            {
              "name": "",
              "type": "address",
              "internalType": "address"
            }
          ],
          "stateMutability": "view"
        },
        {
          "type": "function",
          "name": "proposalIdToCompanyAddress",
          "inputs": [
            {
              "name": "",
              "type": "uint256",
              "internalType": "uint256"
            }
          ],
          "outputs": [
            {
              "name": "",
              "type": "address",
              "internalType": "address"
            }
          ],
          "stateMutability": "view"
        },
        {
          "type": "function",
          "name": "proposalIdToCurrentFunding",
          "inputs": [
            {
              "name": "",
              "type": "uint256",
              "internalType": "uint256"
            }
          ],
          "outputs": [
            {
              "name": "",
              "type": "uint256",
              "internalType": "uint256"
            }
          ],
          "stateMutability": "view"
        },
        {
          "type": "function",
          "name": "proposalIdToDeadline",
          "inputs": [
            {
              "name": "",
              "type": "uint256",
              "internalType": "uint256"
            }
          ],
          "outputs": [
            {
              "name": "",
              "type": "uint256",
              "internalType": "uint256"
            }
          ],
          "stateMutability": "view"
        },
        {
          "type": "function",
          "name": "proposalIdToDecisionStatus",
          "inputs": [
            {
              "name": "",
              "type": "uint256",
              "internalType": "uint256"
            }
          ],
          "outputs": [
            {
              "name": "",
              "type": "uint8",
              "internalType": "enum MainContract.Decision"
            }
          ],
          "stateMutability": "view"
        },
        {
          "type": "function",
          "name": "proposalIdToFundingGoal",
          "inputs": [
            {
              "name": "",
              "type": "uint256",
              "internalType": "uint256"
            }
          ],
          "outputs": [
            {
              "name": "",
              "type": "uint256",
              "internalType": "uint256"
            }
          ],
          "stateMutability": "view"
        },
        {
          "type": "function",
          "name": "proposalIdToURI",
          "inputs": [
            {
              "name": "",
              "type": "uint256",
              "internalType": "uint256"
            }
          ],
          "outputs": [
            {
              "name": "",
              "type": "string",
              "internalType": "string"
            }
          ],
          "stateMutability": "view"
        },
        {
          "type": "function",
          "name": "refundOutdatedProposal",
          "inputs": [
            {
              "name": "proposalId",
              "type": "uint256",
              "internalType": "uint256"
            }
          ],
          "outputs": [],
          "stateMutability": "nonpayable"
        },
        {
          "type": "function",
          "name": "renounceOwnership",
          "inputs": [],
          "outputs": [],
          "stateMutability": "nonpayable"
        },
        {
          "type": "function",
          "name": "returnAmountFundedOfTheAddress",
          "inputs": [
            {
              "name": "proposalId",
              "type": "uint256",
              "internalType": "uint256"
            },
            {
              "name": "contributorAddress",
              "type": "address",
              "internalType": "address"
            }
          ],
          "outputs": [
            {
              "name": "",
              "type": "uint256",
              "internalType": "uint256"
            }
          ],
          "stateMutability": "view"
        },
        {
          "type": "function",
          "name": "returnSerialNumberOfTheProposalId",
          "inputs": [
            {
              "name": "companyAddress",
              "type": "address",
              "internalType": "address"
            },
            {
              "name": "serialNumber",
              "type": "uint256",
              "internalType": "uint256"
            }
          ],
          "outputs": [
            {
              "name": "",
              "type": "uint256",
              "internalType": "uint256"
            }
          ],
          "stateMutability": "view"
        },
        {
          "type": "function",
          "name": "transferOwnership",
          "inputs": [
            {
              "name": "newOwner",
              "type": "address",
              "internalType": "address"
            }
          ],
          "outputs": [],
          "stateMutability": "nonpayable"
        },
        {
          "type": "function",
          "name": "withdrawCommission",
          "inputs": [],
          "outputs": [],
          "stateMutability": "nonpayable"
        },
        {
          "type": "event",
          "name": "MainContract__CommissionWithdrawn",
          "inputs": [
            {
              "name": "commissionAmount",
              "type": "uint256",
              "indexed": true,
              "internalType": "uint256"
            }
          ],
          "anonymous": false
        },
        {
          "type": "event",
          "name": "MainContract__CompanyExecutingProposal",
          "inputs": [
            {
              "name": "proposalId",
              "type": "uint256",
              "indexed": true,
              "internalType": "uint256"
            },
            {
              "name": "amountWithdrawn",
              "type": "uint256",
              "indexed": true,
              "internalType": "uint256"
            },
            {
              "name": "timeStamp",
              "type": "uint256",
              "indexed": true,
              "internalType": "uint256"
            }
          ],
          "anonymous": false
        },
        {
          "type": "event",
          "name": "MainContract__ProposalCreated",
          "inputs": [
            {
              "name": "toCompanyAddress",
              "type": "address",
              "indexed": true,
              "internalType": "address"
            },
            {
              "name": "proposalURI",
              "type": "string",
              "indexed": true,
              "internalType": "string"
            }
          ],
          "anonymous": false
        },
        {
          "type": "event",
          "name": "MainContract__ProposalFunded",
          "inputs": [
            {
              "name": "proposalId",
              "type": "uint256",
              "indexed": true,
              "internalType": "uint256"
            },
            {
              "name": "fundingAmount",
              "type": "uint256",
              "indexed": true,
              "internalType": "uint256"
            }
          ],
          "anonymous": false
        },
        {
          "type": "event",
          "name": "MainContract__ProposalStatusChanged",
          "inputs": [
            {
              "name": "proposalId",
              "type": "uint256",
              "indexed": true,
              "internalType": "uint256"
            },
            {
              "name": "decision",
              "type": "uint8",
              "indexed": true,
              "internalType": "enum MainContract.Decision"
            }
          ],
          "anonymous": false
        },
        {
          "type": "event",
          "name": "MainContract__RefundIssued",
          "inputs": [
            {
              "name": "proposalId",
              "type": "uint256",
              "indexed": true,
              "internalType": "uint256"
            },
            {
              "name": "recipient",
              "type": "address",
              "indexed": true,
              "internalType": "address"
            },
            {
              "name": "amount",
              "type": "uint256",
              "indexed": true,
              "internalType": "uint256"
            }
          ],
          "anonymous": false
        },
        {
          "type": "event",
          "name": "OwnershipTransferred",
          "inputs": [
            {
              "name": "previousOwner",
              "type": "address",
              "indexed": true,
              "internalType": "address"
            },
            {
              "name": "newOwner",
              "type": "address",
              "indexed": true,
              "internalType": "address"
            }
          ],
          "anonymous": false
        },
        {
          "type": "error",
          "name": "AddressEmptyCode",
          "inputs": [
            {
              "name": "target",
              "type": "address",
              "internalType": "address"
            }
          ]
        },
        {
          "type": "error",
          "name": "AddressInsufficientBalance",
          "inputs": [
            {
              "name": "account",
              "type": "address",
              "internalType": "address"
            }
          ]
        },
        {
          "type": "error",
          "name": "FailedInnerCall",
          "inputs": []
        },
        {
          "type": "error",
          "name": "MainContract__NotAllowedToPerformThisAction",
          "inputs": []
        },
        {
          "type": "error",
          "name": "MainContract__NotEnoughCommissionAccumulated",
          "inputs": []
        },
        {
          "type": "error",
          "name": "MainContract__ProposalDoesNotExist",
          "inputs": []
        },
        {
          "type": "error",
          "name": "MainContract__ProposalIsNotInAcceptedStatus",
          "inputs": []
        },
        {
          "type": "error",
          "name": "MainContract__ProposalIsNotRejected",
          "inputs": []
        },
        {
          "type": "error",
          "name": "MainContract__ProposalIsOutdated",
          "inputs": []
        },
        {
          "type": "error",
          "name": "MainContract__ProposalIsStillActive",
          "inputs": []
        },
        {
          "type": "error",
          "name": "OwnableInvalidOwner",
          "inputs": [
            {
              "name": "owner",
              "type": "address",
              "internalType": "address"
            }
          ]
        },
        {
          "type": "error",
          "name": "OwnableUnauthorizedAccount",
          "inputs": [
            {
              "name": "account",
              "type": "address",
              "internalType": "address"
            }
          ]
        },
        {
          "type": "error",
          "name": "SafeERC20FailedOperation",
          "inputs": [
            {
              "name": "token",
              "type": "address",
              "internalType": "address"
            }
          ]
        }
      ],
      "userdoc": {},
      "devdoc": {},
      "evm": {
        "bytecode": {
          "object": "60806040523480156200001157600080fd5b506040516200153138038062001531833981016040819052620000349162000144565b33806200005b57604051631e4fbdf760e01b81526000600482015260240160405180910390fd5b6200006681620000f4565b50600280546001600160a01b0319166001600160a01b0383169081179091556040805163313ce56760e01b8152905163313ce567916004808201926020929091908290030181865afa158015620000c1573d6000803e3d6000fd5b505050506040513d601f19601f82011682018060405250810190620000e7919062000176565b60ff16600355506200019b565b600080546001600160a01b038381166001600160a01b0319831681178455604051919092169283917f8be0079c531659141344cd1fd0a4f28419497f9722a3daafe3b4186f6b6457e09190a35050565b6000602082840312156200015757600080fd5b81516001600160a01b03811681146200016f57600080fd5b9392505050565b6000602082840312156200018957600080fd5b815160ff811681146200016f57600080fd5b61138680620001ab6000396000f3fe608060405234801561001057600080fd5b506004361061012c5760003560e01c8063715018a6116100ad57806397678bb31161007157806397678bb3146102ad578063dccf9add146102cd578063f2fde38b14610303578063fea68fe814610316578063feac729d1461034657600080fd5b8063715018a61461025b57806381d56abe146102635780638da5cb5b14610276578063908e45e314610287578063916524541461029a57600080fd5b80633bfe4ef1116100f45780633bfe4ef1146101cc5780633e25e8371461020d5780634b55baa6146102155780635aa33839146102285780636cd03f711461024857600080fd5b80631a5bc391146101315780631ddaa278146101465780631f4f7d29146101795780632965b33d1461018c5780633a0eee2a146101ac575b600080fd5b61014461013f366004610df8565b61034f565b005b610166610154366004610df8565b600b6020526000908152604090205481565b6040519081526020015b60405180910390f35b610144610187366004610e43565b610448565b61016661019a366004610df8565b600d6020526000908152604090205481565b6101666101ba366004610df8565b600a6020526000908152604090205481565b6101f56101da366004610df8565b6009602052600090815260409020546001600160a01b031681565b6040516001600160a01b039091168152602001610170565b61014461053c565b610144610223366004610f05565b61066b565b61023b610236366004610df8565b61079e565b6040516101709190610f4b565b610144610256366004610df8565b610838565b6101446108fa565b610144610271366004610df8565b61090e565b6000546001600160a01b03166101f5565b610166610295366004610f7e565b610a08565b6101446102a8366004610fa8565b610a33565b6101666102bb366004610fe9565b60066020526000908152604090205481565b6101666102db366004611004565b6000918252600c602090815260408084206001600160a01b0393909316845291905290205490565b610144610311366004610fe9565b610afb565b610339610324366004610df8565b60076020526000908152604090205460ff1681565b6040516101709190611046565b61016660015481565b6000818152600d602052604090205442101561037e57604051639cde56e760e01b815260040160405180910390fd5b600160008281526007602052604090205460ff1660048111156103a3576103a3611030565b146103c1576040516376b52c0360e01b815260040160405180910390fd5b6000818152600760205260409020805460ff191660041790556003546104189033906103ef90600190611084565b6103fa90600a61117b565b610405906001611187565b6002546001600160a01b03169190610b3e565b600260405182907f4fb345fea50d79425113c86459bd648f7c2f4e63316f4508559285ac2fc8786f90600090a350565b60015460008181526008602052604090206104638382611226565b506001600160a01b038316600081815260056020908152604080832060068352818420805485529083528184208690558590558483526009909152902080546001600160a01b031916909117905560018054810190556003546104ee90339030906104cf90600a61117b565b6104da90600a611187565b6002546001600160a01b0316929190610ba2565b816040516104fc91906112e6565b604051908190038120906001600160a01b038516907fa317ad5c3aeac764011234729f03c0c21e5d6333a3ec00326d54fcd16ec30abe90600090a3505050565b610544610be1565b6002546040516370a0823160e01b81523060048201526000916001600160a01b0316906370a0823190602401602060405180830381865afa15801561058d573d6000803e3d6000fd5b505050506040513d601f19601f820116820180604052508101906105b19190611302565b9050600354600a6105c2919061117b565b6105ce9061012c611187565b8110156105ee57604051630cb2a1c560e11b815260040160405180910390fd5b6000600454600354600a610602919061117b565b61060e9061012c611187565b6106189084611084565b6106229190611084565b60025490915061063c906001600160a01b03163383610b3e565b60405181907f7d3bfc819c03fed5dc747fb26b4f6918d2d00052edcbb5202f6a36c154dd925e90600090a25050565b816001541161068d57604051633f11ad4160e11b815260040160405180910390fd5b600160008381526007602052604090205460ff1660048111156106b2576106b2611030565b146106d0576040516376b52c0360e01b815260040160405180910390fd5b6000828152600d60205260409020544211156106ff5760405163326cd23760e11b815260040160405180910390fd5b6000828152600b60205260408120805483929061071d90849061131b565b90915550506000828152600c6020908152604080832033845290915281208290556004805483929061075090849061131b565b909155505060025461076d906001600160a01b0316333084610ba2565b604051819083907fb8a97e222da5a67c303fce770fe57c0699d5b7e74c05aaa6a2b18d27d9ac683190600090a35050565b600860205260009081526040902080546107b79061119e565b80601f01602080910402602001604051908101604052809291908181526020018280546107e39061119e565b80156108305780601f1061080557610100808354040283529160200191610830565b820191906000526020600020905b81548152906001019060200180831161081357829003601f168201915b505050505081565b6000818152600960205260409020546001600160a01b0316331461086f5760405163051007fd60e31b815260040160405180910390fd5b6000818152600760209081526040808320805460ff19166003179055600b909152812080549082905560048054919283926108ab908490611084565b90915550506002546108c7906001600160a01b03163383610b3e565b4281837fdf2dc7e1c12939e294b1e51857a182f572b4f0ec497df55e7cfe7b997c25c18660405160405180910390a45050565b610902610be1565b61090c6000610c0e565b565b600460008281526007602052604090205460ff16600481111561093357610933611030565b14610951576040516335ffc37b60e01b815260040160405180910390fd5b6000818152600c60209081526040808320338452909152812054600480549192839261097e908490611084565b90915550506000828152600c602090815260408083203384528252808320839055848352600b909152812080548392906109b9908490611084565b90915550506002546109d5906001600160a01b03163383610b3e565b6040518190339084907f4e5fa6eedcbb6ca04870cde32a85ffe1ae6ea63a5f163056cf9593440bd466e190600090a45050565b6001600160a01b03821660009081526005602090815260408083208484529091529020545b92915050565b6000848152600960205260409020546001600160a01b03163314610a6a5760405163051007fd60e31b815260040160405180910390fd5b6000848152600760205260409020805484919060ff19166001836004811115610a9557610a95611030565b02179055506000848152600a60209081526040808320859055600d9091529020819055826004811115610aca57610aca611030565b60405185907f4fb345fea50d79425113c86459bd648f7c2f4e63316f4508559285ac2fc8786f90600090a350505050565b610b03610be1565b6001600160a01b038116610b3257604051631e4fbdf760e01b8152600060048201526024015b60405180910390fd5b610b3b81610c0e565b50565b6040516001600160a01b03838116602483015260448201839052610b9d91859182169063a9059cbb906064015b604051602081830303815290604052915060e01b6020820180516001600160e01b038381831617835250505050610c5e565b505050565b6040516001600160a01b038481166024830152838116604483015260648201839052610bdb9186918216906323b872dd90608401610b6b565b50505050565b6000546001600160a01b0316331461090c5760405163118cdaa760e01b8152336004820152602401610b29565b600080546001600160a01b038381166001600160a01b0319831681178455604051919092169283917f8be0079c531659141344cd1fd0a4f28419497f9722a3daafe3b4186f6b6457e09190a35050565b6000610c736001600160a01b03841683610cc1565b90508051600014158015610c98575080806020019051810190610c96919061132e565b155b15610b9d57604051635274afe760e01b81526001600160a01b0384166004820152602401610b29565b6060610ccf83836000610cd6565b9392505050565b606081471015610cfb5760405163cd78605960e01b8152306004820152602401610b29565b600080856001600160a01b03168486604051610d1791906112e6565b60006040518083038185875af1925050503d8060008114610d54576040519150601f19603f3d011682016040523d82523d6000602084013e610d59565b606091505b5091509150610d69868383610d73565b9695505050505050565b606082610d8857610d8382610dcf565b610ccf565b8151158015610d9f57506001600160a01b0384163b155b15610dc857604051639996b31560e01b81526001600160a01b0385166004820152602401610b29565b5080610ccf565b805115610ddf5780518082602001fd5b604051630a12f52160e11b815260040160405180910390fd5b600060208284031215610e0a57600080fd5b5035919050565b80356001600160a01b0381168114610e2857600080fd5b919050565b634e487b7160e01b600052604160045260246000fd5b60008060408385031215610e5657600080fd5b610e5f83610e11565b9150602083013567ffffffffffffffff80821115610e7c57600080fd5b818501915085601f830112610e9057600080fd5b813581811115610ea257610ea2610e2d565b604051601f8201601f19908116603f01168101908382118183101715610eca57610eca610e2d565b81604052828152886020848701011115610ee357600080fd5b8260208601602083013760006020848301015280955050505050509250929050565b60008060408385031215610f1857600080fd5b50508035926020909101359150565b60005b83811015610f42578181015183820152602001610f2a565b50506000910152565b6020815260008251806020840152610f6a816040850160208701610f27565b601f01601f19169190910160400192915050565b60008060408385031215610f9157600080fd5b610f9a83610e11565b946020939093013593505050565b60008060008060808587031215610fbe57600080fd5b84359350602085013560058110610fd457600080fd5b93969395505050506040820135916060013590565b600060208284031215610ffb57600080fd5b610ccf82610e11565b6000806040838503121561101757600080fd5b8235915061102760208401610e11565b90509250929050565b634e487b7160e01b600052602160045260246000fd5b602081016005831061106857634e487b7160e01b600052602160045260246000fd5b91905290565b634e487b7160e01b600052601160045260246000fd5b81810381811115610a2d57610a2d61106e565b600181815b808511156110d25781600019048211156110b8576110b861106e565b808516156110c557918102915b93841c939080029061109c565b509250929050565b6000826110e957506001610a2d565b816110f657506000610a2d565b816001811461110c576002811461111657611132565b6001915050610a2d565b60ff8411156111275761112761106e565b50506001821b610a2d565b5060208310610133831016604e8410600b8410161715611155575081810a610a2d565b61115f8383611097565b80600019048211156111735761117361106e565b029392505050565b6000610ccf83836110da565b8082028115828204841417610a2d57610a2d61106e565b600181811c908216806111b257607f821691505b6020821081036111d257634e487b7160e01b600052602260045260246000fd5b50919050565b601f821115610b9d57600081815260208120601f850160051c810160208610156111ff5750805b601f850160051c820191505b8181101561121e5782815560010161120b565b505050505050565b815167ffffffffffffffff81111561124057611240610e2d565b6112548161124e845461119e565b846111d8565b602080601f83116001811461128957600084156112715750858301515b600019600386901b1c1916600185901b17855561121e565b600085815260208120601f198616915b828110156112b857888601518255948401946001909101908401611299565b50858210156112d65787850151600019600388901b60f8161c191681555b5050505050600190811b01905550565b600082516112f8818460208701610f27565b9190910192915050565b60006020828403121561131457600080fd5b5051919050565b80820180821115610a2d57610a2d61106e565b60006020828403121561134057600080fd5b81518015158114610ccf57600080fdfea2646970667358221220d853c830b9ffac1932933812f0237927eb876393dfd4162980a696fb77d7dd5264736f6c63430008140033",
          "opcodes": "PUSH1 0x80 PUSH1 0x40 MSTORE CALLVALUE DUP1 ISZERO PUSH3 0x11 JUMPI PUSH1 0x0 DUP1 REVERT JUMPDEST POP PUSH1 0x40 MLOAD PUSH3 0x1531 CODESIZE SUB DUP1 PUSH3 0x1531 DUP4 CODECOPY DUP2 ADD PUSH1 0x40 DUP2 SWAP1 MSTORE PUSH3 0x34 SWAP2 PUSH3 0x144 JUMP JUMPDEST CALLER DUP1 PUSH3 0x5B JUMPI PUSH1 0x40 MLOAD PUSH4 0x1E4FBDF7 PUSH1 0xE0 SHL DUP2 MSTORE PUSH1 0x0 PUSH1 0x4 DUP3 ADD MSTORE PUSH1 0x24 ADD PUSH1 0x40 MLOAD DUP1 SWAP2 SUB SWAP1 REVERT JUMPDEST PUSH3 0x66 DUP2 PUSH3 0xF4 JUMP JUMPDEST POP PUSH1 0x2 DUP1 SLOAD PUSH1 0x1 PUSH1 0x1 PUSH1 0xA0 SHL SUB NOT AND PUSH1 0x1 PUSH1 0x1 PUSH1 0xA0 SHL SUB DUP4 AND SWAP1 DUP2 OR SWAP1 SWAP2 SSTORE PUSH1 0x40 DUP1 MLOAD PUSH4 0x313CE567 PUSH1 0xE0 SHL DUP2 MSTORE SWAP1 MLOAD PUSH4 0x313CE567 SWAP2 PUSH1 0x4 DUP1 DUP3 ADD SWAP3 PUSH1 0x20 SWAP3 SWAP1 SWAP2 SWAP1 DUP3 SWAP1 SUB ADD DUP2 DUP7 GAS STATICCALL ISZERO DUP1 ISZERO PUSH3 0xC1 JUMPI RETURNDATASIZE PUSH1 0x0 DUP1 RETURNDATACOPY RETURNDATASIZE PUSH1 0x0 REVERT JUMPDEST POP POP POP POP PUSH1 0x40 MLOAD RETURNDATASIZE PUSH1 0x1F NOT PUSH1 0x1F DUP3 ADD AND DUP3 ADD DUP1 PUSH1 0x40 MSTORE POP DUP2 ADD SWAP1 PUSH3 0xE7 SWAP2 SWAP1 PUSH3 0x176 JUMP JUMPDEST PUSH1 0xFF AND PUSH1 0x3 SSTORE POP PUSH3 0x19B JUMP JUMPDEST PUSH1 0x0 DUP1 SLOAD PUSH1 0x1 PUSH1 0x1 PUSH1 0xA0 SHL SUB DUP4 DUP2 AND PUSH1 0x1 PUSH1 0x1 PUSH1 0xA0 SHL SUB NOT DUP4 AND DUP2 OR DUP5 SSTORE PUSH1 0x40 MLOAD SWAP2 SWAP1 SWAP3 AND SWAP3 DUP4 SWAP2 PUSH32 0x8BE0079C531659141344CD1FD0A4F28419497F9722A3DAAFE3B4186F6B6457E0 SWAP2 SWAP1 LOG3 POP POP JUMP JUMPDEST PUSH1 0x0 PUSH1 0x20 DUP3 DUP5 SUB SLT ISZERO PUSH3 0x157 JUMPI PUSH1 0x0 DUP1 REVERT JUMPDEST DUP2 MLOAD PUSH1 0x1 PUSH1 0x1 PUSH1 0xA0 SHL SUB DUP2 AND DUP2 EQ PUSH3 0x16F JUMPI PUSH1 0x0 DUP1 REVERT JUMPDEST SWAP4 SWAP3 POP POP POP JUMP JUMPDEST PUSH1 0x0 PUSH1 0x20 DUP3 DUP5 SUB SLT ISZERO PUSH3 0x189 JUMPI PUSH1 0x0 DUP1 REVERT JUMPDEST DUP2 MLOAD PUSH1 0xFF DUP2 AND DUP2 EQ PUSH3 0x16F JUMPI PUSH1 0x0 DUP1 REVERT JUMPDEST PUSH2 0x1386 DUP1 PUSH3 0x1AB PUSH1 0x0 CODECOPY PUSH1 0x0 RETURN INVALID PUSH1 0x80 PUSH1 0x40 MSTORE CALLVALUE DUP1 ISZERO PUSH2 0x10 JUMPI PUSH1 0x0 DUP1 REVERT JUMPDEST POP PUSH1 0x4 CALLDATASIZE LT PUSH2 0x12C JUMPI PUSH1 0x0 CALLDATALOAD PUSH1 0xE0 SHR DUP1 PUSH4 0x715018A6 GT PUSH2 0xAD JUMPI DUP1 PUSH4 0x97678BB3 GT PUSH2 0x71 JUMPI DUP1 PUSH4 0x97678BB3 EQ PUSH2 0x2AD JUMPI DUP1 PUSH4 0xDCCF9ADD EQ PUSH2 0x2CD JUMPI DUP1 PUSH4 0xF2FDE38B EQ PUSH2 0x303 JUMPI DUP1 PUSH4 0xFEA68FE8 EQ PUSH2 0x316 JUMPI DUP1 PUSH4 0xFEAC729D EQ PUSH2 0x346 JUMPI PUSH1 0x0 DUP1 REVERT JUMPDEST DUP1 PUSH4 0x715018A6 EQ PUSH2 0x25B JUMPI DUP1 PUSH4 0x81D56ABE EQ PUSH2 0x263 JUMPI DUP1 PUSH4 0x8DA5CB5B EQ PUSH2 0x276 JUMPI DUP1 PUSH4 0x908E45E3 EQ PUSH2 0x287 JUMPI DUP1 PUSH4 0x91652454 EQ PUSH2 0x29A JUMPI PUSH1 0x0 DUP1 REVERT JUMPDEST DUP1 PUSH4 0x3BFE4EF1 GT PUSH2 0xF4 JUMPI DUP1 PUSH4 0x3BFE4EF1 EQ PUSH2 0x1CC JUMPI DUP1 PUSH4 0x3E25E837 EQ PUSH2 0x20D JUMPI DUP1 PUSH4 0x4B55BAA6 EQ PUSH2 0x215 JUMPI DUP1 PUSH4 0x5AA33839 EQ PUSH2 0x228 JUMPI DUP1 PUSH4 0x6CD03F71 EQ PUSH2 0x248 JUMPI PUSH1 0x0 DUP1 REVERT JUMPDEST DUP1 PUSH4 0x1A5BC391 EQ PUSH2 0x131 JUMPI DUP1 PUSH4 0x1DDAA278 EQ PUSH2 0x146 JUMPI DUP1 PUSH4 0x1F4F7D29 EQ PUSH2 0x179 JUMPI DUP1 PUSH4 0x2965B33D EQ PUSH2 0x18C JUMPI DUP1 PUSH4 0x3A0EEE2A EQ PUSH2 0x1AC JUMPI JUMPDEST PUSH1 0x0 DUP1 REVERT JUMPDEST PUSH2 0x144 PUSH2 0x13F CALLDATASIZE PUSH1 0x4 PUSH2 0xDF8 JUMP JUMPDEST PUSH2 0x34F JUMP JUMPDEST STOP JUMPDEST PUSH2 0x166 PUSH2 0x154 CALLDATASIZE PUSH1 0x4 PUSH2 0xDF8 JUMP JUMPDEST PUSH1 0xB PUSH1 0x20 MSTORE PUSH1 0x0 SWAP1 DUP2 MSTORE PUSH1 0x40 SWAP1 KECCAK256 SLOAD DUP2 JUMP JUMPDEST PUSH1 0x40 MLOAD SWAP1 DUP2 MSTORE PUSH1 0x20 ADD JUMPDEST PUSH1 0x40 MLOAD DUP1 SWAP2 SUB SWAP1 RETURN JUMPDEST PUSH2 0x144 PUSH2 0x187 CALLDATASIZE PUSH1 0x4 PUSH2 0xE43 JUMP JUMPDEST PUSH2 0x448 JUMP JUMPDEST PUSH2 0x166 PUSH2 0x19A CALLDATASIZE PUSH1 0x4 PUSH2 0xDF8 JUMP JUMPDEST PUSH1 0xD PUSH1 0x20 MSTORE PUSH1 0x0 SWAP1 DUP2 MSTORE PUSH1 0x40 SWAP1 KECCAK256 SLOAD DUP2 JUMP JUMPDEST PUSH2 0x166 PUSH2 0x1BA CALLDATASIZE PUSH1 0x4 PUSH2 0xDF8 JUMP JUMPDEST PUSH1 0xA PUSH1 0x20 MSTORE PUSH1 0x0 SWAP1 DUP2 MSTORE PUSH1 0x40 SWAP1 KECCAK256 SLOAD DUP2 JUMP JUMPDEST PUSH2 0x1F5 PUSH2 0x1DA CALLDATASIZE PUSH1 0x4 PUSH2 0xDF8 JUMP JUMPDEST PUSH1 0x9 PUSH1 0x20 MSTORE PUSH1 0x0 SWAP1 DUP2 MSTORE PUSH1 0x40 SWAP1 KECCAK256 SLOAD PUSH1 0x1 PUSH1 0x1 PUSH1 0xA0 SHL SUB AND DUP2 JUMP JUMPDEST PUSH1 0x40 MLOAD PUSH1 0x1 PUSH1 0x1 PUSH1 0xA0 SHL SUB SWAP1 SWAP2 AND DUP2 MSTORE PUSH1 0x20 ADD PUSH2 0x170 JUMP JUMPDEST PUSH2 0x144 PUSH2 0x53C JUMP JUMPDEST PUSH2 0x144 PUSH2 0x223 CALLDATASIZE PUSH1 0x4 PUSH2 0xF05 JUMP JUMPDEST PUSH2 0x66B JUMP JUMPDEST PUSH2 0x23B PUSH2 0x236 CALLDATASIZE PUSH1 0x4 PUSH2 0xDF8 JUMP JUMPDEST PUSH2 0x79E JUMP JUMPDEST PUSH1 0x40 MLOAD PUSH2 0x170 SWAP2 SWAP1 PUSH2 0xF4B JUMP JUMPDEST PUSH2 0x144 PUSH2 0x256 CALLDATASIZE PUSH1 0x4 PUSH2 0xDF8 JUMP JUMPDEST PUSH2 0x838 JUMP JUMPDEST PUSH2 0x144 PUSH2 0x8FA JUMP JUMPDEST PUSH2 0x144 PUSH2 0x271 CALLDATASIZE PUSH1 0x4 PUSH2 0xDF8 JUMP JUMPDEST PUSH2 0x90E JUMP JUMPDEST PUSH1 0x0 SLOAD PUSH1 0x1 PUSH1 0x1 PUSH1 0xA0 SHL SUB AND PUSH2 0x1F5 JUMP JUMPDEST PUSH2 0x166 PUSH2 0x295 CALLDATASIZE PUSH1 0x4 PUSH2 0xF7E JUMP JUMPDEST PUSH2 0xA08 JUMP JUMPDEST PUSH2 0x144 PUSH2 0x2A8 CALLDATASIZE PUSH1 0x4 PUSH2 0xFA8 JUMP JUMPDEST PUSH2 0xA33 JUMP JUMPDEST PUSH2 0x166 PUSH2 0x2BB CALLDATASIZE PUSH1 0x4 PUSH2 0xFE9 JUMP JUMPDEST PUSH1 0x6 PUSH1 0x20 MSTORE PUSH1 0x0 SWAP1 DUP2 MSTORE PUSH1 0x40 SWAP1 KECCAK256 SLOAD DUP2 JUMP JUMPDEST PUSH2 0x166 PUSH2 0x2DB CALLDATASIZE PUSH1 0x4 PUSH2 0x1004 JUMP JUMPDEST PUSH1 0x0 SWAP2 DUP3 MSTORE PUSH1 0xC PUSH1 0x20 SWAP1 DUP2 MSTORE PUSH1 0x40 DUP1 DUP5 KECCAK256 PUSH1 0x1 PUSH1 0x1 PUSH1 0xA0 SHL SUB SWAP4 SWAP1 SWAP4 AND DUP5 MSTORE SWAP2 SWAP1 MSTORE SWAP1 KECCAK256 SLOAD SWAP1 JUMP JUMPDEST PUSH2 0x144 PUSH2 0x311 CALLDATASIZE PUSH1 0x4 PUSH2 0xFE9 JUMP JUMPDEST PUSH2 0xAFB JUMP JUMPDEST PUSH2 0x339 PUSH2 0x324 CALLDATASIZE PUSH1 0x4 PUSH2 0xDF8 JUMP JUMPDEST PUSH1 0x7 PUSH1 0x20 MSTORE PUSH1 0x0 SWAP1 DUP2 MSTORE PUSH1 0x40 SWAP1 KECCAK256 SLOAD PUSH1 0xFF AND DUP2 JUMP JUMPDEST PUSH1 0x40 MLOAD PUSH2 0x170 SWAP2 SWAP1 PUSH2 0x1046 JUMP JUMPDEST PUSH2 0x166 PUSH1 0x1 SLOAD DUP2 JUMP JUMPDEST PUSH1 0x0 DUP2 DUP2 MSTORE PUSH1 0xD PUSH1 0x20 MSTORE PUSH1 0x40 SWAP1 KECCAK256 SLOAD TIMESTAMP LT ISZERO PUSH2 0x37E JUMPI PUSH1 0x40 MLOAD PUSH4 0x9CDE56E7 PUSH1 0xE0 SHL DUP2 MSTORE PUSH1 0x4 ADD PUSH1 0x40 MLOAD DUP1 SWAP2 SUB SWAP1 REVERT JUMPDEST PUSH1 0x1 PUSH1 0x0 DUP3 DUP2 MSTORE PUSH1 0x7 PUSH1 0x20 MSTORE PUSH1 0x40 SWAP1 KECCAK256 SLOAD PUSH1 0xFF AND PUSH1 0x4 DUP2 GT ISZERO PUSH2 0x3A3 JUMPI PUSH2 0x3A3 PUSH2 0x1030 JUMP JUMPDEST EQ PUSH2 0x3C1 JUMPI PUSH1 0x40 MLOAD PUSH4 0x76B52C03 PUSH1 0xE0 SHL DUP2 MSTORE PUSH1 0x4 ADD PUSH1 0x40 MLOAD DUP1 SWAP2 SUB SWAP1 REVERT JUMPDEST PUSH1 0x0 DUP2 DUP2 MSTORE PUSH1 0x7 PUSH1 0x20 MSTORE PUSH1 0x40 SWAP1 KECCAK256 DUP1 SLOAD PUSH1 0xFF NOT AND PUSH1 0x4 OR SWAP1 SSTORE PUSH1 0x3 SLOAD PUSH2 0x418 SWAP1 CALLER SWAP1 PUSH2 0x3EF SWAP1 PUSH1 0x1 SWAP1 PUSH2 0x1084 JUMP JUMPDEST PUSH2 0x3FA SWAP1 PUSH1 0xA PUSH2 0x117B JUMP JUMPDEST PUSH2 0x405 SWAP1 PUSH1 0x1 PUSH2 0x1187 JUMP JUMPDEST PUSH1 0x2 SLOAD PUSH1 0x1 PUSH1 0x1 PUSH1 0xA0 SHL SUB AND SWAP2 SWAP1 PUSH2 0xB3E JUMP JUMPDEST PUSH1 0x2 PUSH1 0x40 MLOAD DUP3 SWAP1 PUSH32 0x4FB345FEA50D79425113C86459BD648F7C2F4E63316F4508559285AC2FC8786F SWAP1 PUSH1 0x0 SWAP1 LOG3 POP JUMP JUMPDEST PUSH1 0x1 SLOAD PUSH1 0x0 DUP2 DUP2 MSTORE PUSH1 0x8 PUSH1 0x20 MSTORE PUSH1 0x40 SWAP1 KECCAK256 PUSH2 0x463 DUP4 DUP3 PUSH2 0x1226 JUMP JUMPDEST POP PUSH1 0x1 PUSH1 0x1 PUSH1 0xA0 SHL SUB DUP4 AND PUSH1 0x0 DUP2 DUP2 MSTORE PUSH1 0x5 PUSH1 0x20 SWAP1 DUP2 MSTORE PUSH1 0x40 DUP1 DUP4 KECCAK256 PUSH1 0x6 DUP4 MSTORE DUP2 DUP5 KECCAK256 DUP1 SLOAD DUP6 MSTORE SWAP1 DUP4 MSTORE DUP2 DUP5 KECCAK256 DUP7 SWAP1 SSTORE DUP6 SWAP1 SSTORE DUP5 DUP4 MSTORE PUSH1 0x9 SWAP1 SWAP2 MSTORE SWAP1 KECCAK256 DUP1 SLOAD PUSH1 0x1 PUSH1 0x1 PUSH1 0xA0 SHL SUB NOT AND SWAP1 SWAP2 OR SWAP1 SSTORE PUSH1 0x1 DUP1 SLOAD DUP2 ADD SWAP1 SSTORE PUSH1 0x3 SLOAD PUSH2 0x4EE SWAP1 CALLER SWAP1 ADDRESS SWAP1 PUSH2 0x4CF SWAP1 PUSH1 0xA PUSH2 0x117B JUMP JUMPDEST PUSH2 0x4DA SWAP1 PUSH1 0xA PUSH2 0x1187 JUMP JUMPDEST PUSH1 0x2 SLOAD PUSH1 0x1 PUSH1 0x1 PUSH1 0xA0 SHL SUB AND SWAP3 SWAP2 SWAP1 PUSH2 0xBA2 JUMP JUMPDEST DUP2 PUSH1 0x40 MLOAD PUSH2 0x4FC SWAP2 SWAP1 PUSH2 0x12E6 JUMP JUMPDEST PUSH1 0x40 MLOAD SWAP1 DUP2 SWAP1 SUB DUP2 KECCAK256 SWAP1 PUSH1 0x1 PUSH1 0x1 PUSH1 0xA0 SHL SUB DUP6 AND SWAP1 PUSH32 0xA317AD5C3AEAC764011234729F03C0C21E5D6333A3EC00326D54FCD16EC30ABE SWAP1 PUSH1 0x0 SWAP1 LOG3 POP POP POP JUMP JUMPDEST PUSH2 0x544 PUSH2 0xBE1 JUMP JUMPDEST PUSH1 0x2 SLOAD PUSH1 0x40 MLOAD PUSH4 0x70A08231 PUSH1 0xE0 SHL DUP2 MSTORE ADDRESS PUSH1 0x4 DUP3 ADD MSTORE PUSH1 0x0 SWAP2 PUSH1 0x1 PUSH1 0x1 PUSH1 0xA0 SHL SUB AND SWAP1 PUSH4 0x70A08231 SWAP1 PUSH1 0x24 ADD PUSH1 0x20 PUSH1 0x40 MLOAD DUP1 DUP4 SUB DUP2 DUP7 GAS STATICCALL ISZERO DUP1 ISZERO PUSH2 0x58D JUMPI RETURNDATASIZE PUSH1 0x0 DUP1 RETURNDATACOPY RETURNDATASIZE PUSH1 0x0 REVERT JUMPDEST POP POP POP POP PUSH1 0x40 MLOAD RETURNDATASIZE PUSH1 0x1F NOT PUSH1 0x1F DUP3 ADD AND DUP3 ADD DUP1 PUSH1 0x40 MSTORE POP DUP2 ADD SWAP1 PUSH2 0x5B1 SWAP2 SWAP1 PUSH2 0x1302 JUMP JUMPDEST SWAP1 POP PUSH1 0x3 SLOAD PUSH1 0xA PUSH2 0x5C2 SWAP2 SWAP1 PUSH2 0x117B JUMP JUMPDEST PUSH2 0x5CE SWAP1 PUSH2 0x12C PUSH2 0x1187 JUMP JUMPDEST DUP2 LT ISZERO PUSH2 0x5EE JUMPI PUSH1 0x40 MLOAD PUSH4 0xCB2A1C5 PUSH1 0xE1 SHL DUP2 MSTORE PUSH1 0x4 ADD PUSH1 0x40 MLOAD DUP1 SWAP2 SUB SWAP1 REVERT JUMPDEST PUSH1 0x0 PUSH1 0x4 SLOAD PUSH1 0x3 SLOAD PUSH1 0xA PUSH2 0x602 SWAP2 SWAP1 PUSH2 0x117B JUMP JUMPDEST PUSH2 0x60E SWAP1 PUSH2 0x12C PUSH2 0x1187 JUMP JUMPDEST PUSH2 0x618 SWAP1 DUP5 PUSH2 0x1084 JUMP JUMPDEST PUSH2 0x622 SWAP2 SWAP1 PUSH2 0x1084 JUMP JUMPDEST PUSH1 0x2 SLOAD SWAP1 SWAP2 POP PUSH2 0x63C SWAP1 PUSH1 0x1 PUSH1 0x1 PUSH1 0xA0 SHL SUB AND CALLER DUP4 PUSH2 0xB3E JUMP JUMPDEST PUSH1 0x40 MLOAD DUP2 SWAP1 PUSH32 0x7D3BFC819C03FED5DC747FB26B4F6918D2D00052EDCBB5202F6A36C154DD925E SWAP1 PUSH1 0x0 SWAP1 LOG2 POP POP JUMP JUMPDEST DUP2 PUSH1 0x1 SLOAD GT PUSH2 0x68D JUMPI PUSH1 0x40 MLOAD PUSH4 0x3F11AD41 PUSH1 0xE1 SHL DUP2 MSTORE PUSH1 0x4 ADD PUSH1 0x40 MLOAD DUP1 SWAP2 SUB SWAP1 REVERT JUMPDEST PUSH1 0x1 PUSH1 0x0 DUP4 DUP2 MSTORE PUSH1 0x7 PUSH1 0x20 MSTORE PUSH1 0x40 SWAP1 KECCAK256 SLOAD PUSH1 0xFF AND PUSH1 0x4 DUP2 GT ISZERO PUSH2 0x6B2 JUMPI PUSH2 0x6B2 PUSH2 0x1030 JUMP JUMPDEST EQ PUSH2 0x6D0 JUMPI PUSH1 0x40 MLOAD PUSH4 0x76B52C03 PUSH1 0xE0 SHL DUP2 MSTORE PUSH1 0x4 ADD PUSH1 0x40 MLOAD DUP1 SWAP2 SUB SWAP1 REVERT JUMPDEST PUSH1 0x0 DUP3 DUP2 MSTORE PUSH1 0xD PUSH1 0x20 MSTORE PUSH1 0x40 SWAP1 KECCAK256 SLOAD TIMESTAMP GT ISZERO PUSH2 0x6FF JUMPI PUSH1 0x40 MLOAD PUSH4 0x326CD237 PUSH1 0xE1 SHL DUP2 MSTORE PUSH1 0x4 ADD PUSH1 0x40 MLOAD DUP1 SWAP2 SUB SWAP1 REVERT JUMPDEST PUSH1 0x0 DUP3 DUP2 MSTORE PUSH1 0xB PUSH1 0x20 MSTORE PUSH1 0x40 DUP2 KECCAK256 DUP1 SLOAD DUP4 SWAP3 SWAP1 PUSH2 0x71D SWAP1 DUP5 SWAP1 PUSH2 0x131B JUMP JUMPDEST SWAP1 SWAP2 SSTORE POP POP PUSH1 0x0 DUP3 DUP2 MSTORE PUSH1 0xC PUSH1 0x20 SWAP1 DUP2 MSTORE PUSH1 0x40 DUP1 DUP4 KECCAK256 CALLER DUP5 MSTORE SWAP1 SWAP2 MSTORE DUP2 KECCAK256 DUP3 SWAP1 SSTORE PUSH1 0x4 DUP1 SLOAD DUP4 SWAP3 SWAP1 PUSH2 0x750 SWAP1 DUP5 SWAP1 PUSH2 0x131B JUMP JUMPDEST SWAP1 SWAP2 SSTORE POP POP PUSH1 0x2 SLOAD PUSH2 0x76D SWAP1 PUSH1 0x1 PUSH1 0x1 PUSH1 0xA0 SHL SUB AND CALLER ADDRESS DUP5 PUSH2 0xBA2 JUMP JUMPDEST PUSH1 0x40 MLOAD DUP2 SWAP1 DUP4 SWAP1 PUSH32 0xB8A97E222DA5A67C303FCE770FE57C0699D5B7E74C05AAA6A2B18D27D9AC6831 SWAP1 PUSH1 0x0 SWAP1 LOG3 POP POP JUMP JUMPDEST PUSH1 0x8 PUSH1 0x20 MSTORE PUSH1 0x0 SWAP1 DUP2 MSTORE PUSH1 0x40 SWAP1 KECCAK256 DUP1 SLOAD PUSH2 0x7B7 SWAP1 PUSH2 0x119E JUMP JUMPDEST DUP1 PUSH1 0x1F ADD PUSH1 0x20 DUP1 SWAP2 DIV MUL PUSH1 0x20 ADD PUSH1 0x40 MLOAD SWAP1 DUP2 ADD PUSH1 0x40 MSTORE DUP1 SWAP3 SWAP2 SWAP1 DUP2 DUP2 MSTORE PUSH1 0x20 ADD DUP3 DUP1 SLOAD PUSH2 0x7E3 SWAP1 PUSH2 0x119E JUMP JUMPDEST DUP1 ISZERO PUSH2 0x830 JUMPI DUP1 PUSH1 0x1F LT PUSH2 0x805 JUMPI PUSH2 0x100 DUP1 DUP4 SLOAD DIV MUL DUP4 MSTORE SWAP2 PUSH1 0x20 ADD SWAP2 PUSH2 0x830 JUMP JUMPDEST DUP3 ADD SWAP2 SWAP1 PUSH1 0x0 MSTORE PUSH1 0x20 PUSH1 0x0 KECCAK256 SWAP1 JUMPDEST DUP2 SLOAD DUP2 MSTORE SWAP1 PUSH1 0x1 ADD SWAP1 PUSH1 0x20 ADD DUP1 DUP4 GT PUSH2 0x813 JUMPI DUP3 SWAP1 SUB PUSH1 0x1F AND DUP3 ADD SWAP2 JUMPDEST POP POP POP POP POP DUP2 JUMP JUMPDEST PUSH1 0x0 DUP2 DUP2 MSTORE PUSH1 0x9 PUSH1 0x20 MSTORE PUSH1 0x40 SWAP1 KECCAK256 SLOAD PUSH1 0x1 PUSH1 0x1 PUSH1 0xA0 SHL SUB AND CALLER EQ PUSH2 0x86F JUMPI PUSH1 0x40 MLOAD PUSH4 0x51007FD PUSH1 0xE3 SHL DUP2 MSTORE PUSH1 0x4 ADD PUSH1 0x40 MLOAD DUP1 SWAP2 SUB SWAP1 REVERT JUMPDEST PUSH1 0x0 DUP2 DUP2 MSTORE PUSH1 0x7 PUSH1 0x20 SWAP1 DUP2 MSTORE PUSH1 0x40 DUP1 DUP4 KECCAK256 DUP1 SLOAD PUSH1 0xFF NOT AND PUSH1 0x3 OR SWAP1 SSTORE PUSH1 0xB SWAP1 SWAP2 MSTORE DUP2 KECCAK256 DUP1 SLOAD SWAP1 DUP3 SWAP1 SSTORE PUSH1 0x4 DUP1 SLOAD SWAP2 SWAP3 DUP4 SWAP3 PUSH2 0x8AB SWAP1 DUP5 SWAP1 PUSH2 0x1084 JUMP JUMPDEST SWAP1 SWAP2 SSTORE POP POP PUSH1 0x2 SLOAD PUSH2 0x8C7 SWAP1 PUSH1 0x1 PUSH1 0x1 PUSH1 0xA0 SHL SUB AND CALLER DUP4 PUSH2 0xB3E JUMP JUMPDEST TIMESTAMP DUP2 DUP4 PUSH32 0xDF2DC7E1C12939E294B1E51857A182F572B4F0EC497DF55E7CFE7B997C25C186 PUSH1 0x40 MLOAD PUSH1 0x40 MLOAD DUP1 SWAP2 SUB SWAP1 LOG4 POP POP JUMP JUMPDEST PUSH2 0x902 PUSH2 0xBE1 JUMP JUMPDEST PUSH2 0x90C PUSH1 0x0 PUSH2 0xC0E JUMP JUMPDEST JUMP JUMPDEST PUSH1 0x4 PUSH1 0x0 DUP3 DUP2 MSTORE PUSH1 0x7 PUSH1 0x20 MSTORE PUSH1 0x40 SWAP1 KECCAK256 SLOAD PUSH1 0xFF AND PUSH1 0x4 DUP2 GT ISZERO PUSH2 0x933 JUMPI PUSH2 0x933 PUSH2 0x1030 JUMP JUMPDEST EQ PUSH2 0x951 JUMPI PUSH1 0x40 MLOAD PUSH4 0x35FFC37B PUSH1 0xE0 SHL DUP2 MSTORE PUSH1 0x4 ADD PUSH1 0x40 MLOAD DUP1 SWAP2 SUB SWAP1 REVERT JUMPDEST PUSH1 0x0 DUP2 DUP2 MSTORE PUSH1 0xC PUSH1 0x20 SWAP1 DUP2 MSTORE PUSH1 0x40 DUP1 DUP4 KECCAK256 CALLER DUP5 MSTORE SWAP1 SWAP2 MSTORE DUP2 KECCAK256 SLOAD PUSH1 0x4 DUP1 SLOAD SWAP2 SWAP3 DUP4 SWAP3 PUSH2 0x97E SWAP1 DUP5 SWAP1 PUSH2 0x1084 JUMP JUMPDEST SWAP1 SWAP2 SSTORE POP POP PUSH1 0x0 DUP3 DUP2 MSTORE PUSH1 0xC PUSH1 0x20 SWAP1 DUP2 MSTORE PUSH1 0x40 DUP1 DUP4 KECCAK256 CALLER DUP5 MSTORE DUP3 MSTORE DUP1 DUP4 KECCAK256 DUP4 SWAP1 SSTORE DUP5 DUP4 MSTORE PUSH1 0xB SWAP1 SWAP2 MSTORE DUP2 KECCAK256 DUP1 SLOAD DUP4 SWAP3 SWAP1 PUSH2 0x9B9 SWAP1 DUP5 SWAP1 PUSH2 0x1084 JUMP JUMPDEST SWAP1 SWAP2 SSTORE POP POP PUSH1 0x2 SLOAD PUSH2 0x9D5 SWAP1 PUSH1 0x1 PUSH1 0x1 PUSH1 0xA0 SHL SUB AND CALLER DUP4 PUSH2 0xB3E JUMP JUMPDEST PUSH1 0x40 MLOAD DUP2 SWAP1 CALLER SWAP1 DUP5 SWAP1 PUSH32 0x4E5FA6EEDCBB6CA04870CDE32A85FFE1AE6EA63A5F163056CF9593440BD466E1 SWAP1 PUSH1 0x0 SWAP1 LOG4 POP POP JUMP JUMPDEST PUSH1 0x1 PUSH1 0x1 PUSH1 0xA0 SHL SUB DUP3 AND PUSH1 0x0 SWAP1 DUP2 MSTORE PUSH1 0x5 PUSH1 0x20 SWAP1 DUP2 MSTORE PUSH1 0x40 DUP1 DUP4 KECCAK256 DUP5 DUP5 MSTORE SWAP1 SWAP2 MSTORE SWAP1 KECCAK256 SLOAD JUMPDEST SWAP3 SWAP2 POP POP JUMP JUMPDEST PUSH1 0x0 DUP5 DUP2 MSTORE PUSH1 0x9 PUSH1 0x20 MSTORE PUSH1 0x40 SWAP1 KECCAK256 SLOAD PUSH1 0x1 PUSH1 0x1 PUSH1 0xA0 SHL SUB AND CALLER EQ PUSH2 0xA6A JUMPI PUSH1 0x40 MLOAD PUSH4 0x51007FD PUSH1 0xE3 SHL DUP2 MSTORE PUSH1 0x4 ADD PUSH1 0x40 MLOAD DUP1 SWAP2 SUB SWAP1 REVERT JUMPDEST PUSH1 0x0 DUP5 DUP2 MSTORE PUSH1 0x7 PUSH1 0x20 MSTORE PUSH1 0x40 SWAP1 KECCAK256 DUP1 SLOAD DUP5 SWAP2 SWAP1 PUSH1 0xFF NOT AND PUSH1 0x1 DUP4 PUSH1 0x4 DUP2 GT ISZERO PUSH2 0xA95 JUMPI PUSH2 0xA95 PUSH2 0x1030 JUMP JUMPDEST MUL OR SWAP1 SSTORE POP PUSH1 0x0 DUP5 DUP2 MSTORE PUSH1 0xA PUSH1 0x20 SWAP1 DUP2 MSTORE PUSH1 0x40 DUP1 DUP4 KECCAK256 DUP6 SWAP1 SSTORE PUSH1 0xD SWAP1 SWAP2 MSTORE SWAP1 KECCAK256 DUP2 SWAP1 SSTORE DUP3 PUSH1 0x4 DUP2 GT ISZERO PUSH2 0xACA JUMPI PUSH2 0xACA PUSH2 0x1030 JUMP JUMPDEST PUSH1 0x40 MLOAD DUP6 SWAP1 PUSH32 0x4FB345FEA50D79425113C86459BD648F7C2F4E63316F4508559285AC2FC8786F SWAP1 PUSH1 0x0 SWAP1 LOG3 POP POP POP POP JUMP JUMPDEST PUSH2 0xB03 PUSH2 0xBE1 JUMP JUMPDEST PUSH1 0x1 PUSH1 0x1 PUSH1 0xA0 SHL SUB DUP2 AND PUSH2 0xB32 JUMPI PUSH1 0x40 MLOAD PUSH4 0x1E4FBDF7 PUSH1 0xE0 SHL DUP2 MSTORE PUSH1 0x0 PUSH1 0x4 DUP3 ADD MSTORE PUSH1 0x24 ADD JUMPDEST PUSH1 0x40 MLOAD DUP1 SWAP2 SUB SWAP1 REVERT JUMPDEST PUSH2 0xB3B DUP2 PUSH2 0xC0E JUMP JUMPDEST POP JUMP JUMPDEST PUSH1 0x40 MLOAD PUSH1 0x1 PUSH1 0x1 PUSH1 0xA0 SHL SUB DUP4 DUP2 AND PUSH1 0x24 DUP4 ADD MSTORE PUSH1 0x44 DUP3 ADD DUP4 SWAP1 MSTORE PUSH2 0xB9D SWAP2 DUP6 SWAP2 DUP3 AND SWAP1 PUSH4 0xA9059CBB SWAP1 PUSH1 0x64 ADD JUMPDEST PUSH1 0x40 MLOAD PUSH1 0x20 DUP2 DUP4 SUB SUB DUP2 MSTORE SWAP1 PUSH1 0x40 MSTORE SWAP2 POP PUSH1 0xE0 SHL PUSH1 0x20 DUP3 ADD DUP1 MLOAD PUSH1 0x1 PUSH1 0x1 PUSH1 0xE0 SHL SUB DUP4 DUP2 DUP4 AND OR DUP4 MSTORE POP POP POP POP PUSH2 0xC5E JUMP JUMPDEST POP POP POP JUMP JUMPDEST PUSH1 0x40 MLOAD PUSH1 0x1 PUSH1 0x1 PUSH1 0xA0 SHL SUB DUP5 DUP2 AND PUSH1 0x24 DUP4 ADD MSTORE DUP4 DUP2 AND PUSH1 0x44 DUP4 ADD MSTORE PUSH1 0x64 DUP3 ADD DUP4 SWAP1 MSTORE PUSH2 0xBDB SWAP2 DUP7 SWAP2 DUP3 AND SWAP1 PUSH4 0x23B872DD SWAP1 PUSH1 0x84 ADD PUSH2 0xB6B JUMP JUMPDEST POP POP POP POP JUMP JUMPDEST PUSH1 0x0 SLOAD PUSH1 0x1 PUSH1 0x1 PUSH1 0xA0 SHL SUB AND CALLER EQ PUSH2 0x90C JUMPI PUSH1 0x40 MLOAD PUSH4 0x118CDAA7 PUSH1 0xE0 SHL DUP2 MSTORE CALLER PUSH1 0x4 DUP3 ADD MSTORE PUSH1 0x24 ADD PUSH2 0xB29 JUMP JUMPDEST PUSH1 0x0 DUP1 SLOAD PUSH1 0x1 PUSH1 0x1 PUSH1 0xA0 SHL SUB DUP4 DUP2 AND PUSH1 0x1 PUSH1 0x1 PUSH1 0xA0 SHL SUB NOT DUP4 AND DUP2 OR DUP5 SSTORE PUSH1 0x40 MLOAD SWAP2 SWAP1 SWAP3 AND SWAP3 DUP4 SWAP2 PUSH32 0x8BE0079C531659141344CD1FD0A4F28419497F9722A3DAAFE3B4186F6B6457E0 SWAP2 SWAP1 LOG3 POP POP JUMP JUMPDEST PUSH1 0x0 PUSH2 0xC73 PUSH1 0x1 PUSH1 0x1 PUSH1 0xA0 SHL SUB DUP5 AND DUP4 PUSH2 0xCC1 JUMP JUMPDEST SWAP1 POP DUP1 MLOAD PUSH1 0x0 EQ ISZERO DUP1 ISZERO PUSH2 0xC98 JUMPI POP DUP1 DUP1 PUSH1 0x20 ADD SWAP1 MLOAD DUP2 ADD SWAP1 PUSH2 0xC96 SWAP2 SWAP1 PUSH2 0x132E JUMP JUMPDEST ISZERO JUMPDEST ISZERO PUSH2 0xB9D JUMPI PUSH1 0x40 MLOAD PUSH4 0x5274AFE7 PUSH1 0xE0 SHL DUP2 MSTORE PUSH1 0x1 PUSH1 0x1 PUSH1 0xA0 SHL SUB DUP5 AND PUSH1 0x4 DUP3 ADD MSTORE PUSH1 0x24 ADD PUSH2 0xB29 JUMP JUMPDEST PUSH1 0x60 PUSH2 0xCCF DUP4 DUP4 PUSH1 0x0 PUSH2 0xCD6 JUMP JUMPDEST SWAP4 SWAP3 POP POP POP JUMP JUMPDEST PUSH1 0x60 DUP2 SELFBALANCE LT ISZERO PUSH2 0xCFB JUMPI PUSH1 0x40 MLOAD PUSH4 0xCD786059 PUSH1 0xE0 SHL DUP2 MSTORE ADDRESS PUSH1 0x4 DUP3 ADD MSTORE PUSH1 0x24 ADD PUSH2 0xB29 JUMP JUMPDEST PUSH1 0x0 DUP1 DUP6 PUSH1 0x1 PUSH1 0x1 PUSH1 0xA0 SHL SUB AND DUP5 DUP7 PUSH1 0x40 MLOAD PUSH2 0xD17 SWAP2 SWAP1 PUSH2 0x12E6 JUMP JUMPDEST PUSH1 0x0 PUSH1 0x40 MLOAD DUP1 DUP4 SUB DUP2 DUP6 DUP8 GAS CALL SWAP3 POP POP POP RETURNDATASIZE DUP1 PUSH1 0x0 DUP2 EQ PUSH2 0xD54 JUMPI PUSH1 0x40 MLOAD SWAP2 POP PUSH1 0x1F NOT PUSH1 0x3F RETURNDATASIZE ADD AND DUP3 ADD PUSH1 0x40 MSTORE RETURNDATASIZE DUP3 MSTORE RETURNDATASIZE PUSH1 0x0 PUSH1 0x20 DUP5 ADD RETURNDATACOPY PUSH2 0xD59 JUMP JUMPDEST PUSH1 0x60 SWAP2 POP JUMPDEST POP SWAP2 POP SWAP2 POP PUSH2 0xD69 DUP7 DUP4 DUP4 PUSH2 0xD73 JUMP JUMPDEST SWAP7 SWAP6 POP POP POP POP POP POP JUMP JUMPDEST PUSH1 0x60 DUP3 PUSH2 0xD88 JUMPI PUSH2 0xD83 DUP3 PUSH2 0xDCF JUMP JUMPDEST PUSH2 0xCCF JUMP JUMPDEST DUP2 MLOAD ISZERO DUP1 ISZERO PUSH2 0xD9F JUMPI POP PUSH1 0x1 PUSH1 0x1 PUSH1 0xA0 SHL SUB DUP5 AND EXTCODESIZE ISZERO JUMPDEST ISZERO PUSH2 0xDC8 JUMPI PUSH1 0x40 MLOAD PUSH4 0x9996B315 PUSH1 0xE0 SHL DUP2 MSTORE PUSH1 0x1 PUSH1 0x1 PUSH1 0xA0 SHL SUB DUP6 AND PUSH1 0x4 DUP3 ADD MSTORE PUSH1 0x24 ADD PUSH2 0xB29 JUMP JUMPDEST POP DUP1 PUSH2 0xCCF JUMP JUMPDEST DUP1 MLOAD ISZERO PUSH2 0xDDF JUMPI DUP1 MLOAD DUP1 DUP3 PUSH1 0x20 ADD REVERT JUMPDEST PUSH1 0x40 MLOAD PUSH4 0xA12F521 PUSH1 0xE1 SHL DUP2 MSTORE PUSH1 0x4 ADD PUSH1 0x40 MLOAD DUP1 SWAP2 SUB SWAP1 REVERT JUMPDEST PUSH1 0x0 PUSH1 0x20 DUP3 DUP5 SUB SLT ISZERO PUSH2 0xE0A JUMPI PUSH1 0x0 DUP1 REVERT JUMPDEST POP CALLDATALOAD SWAP2 SWAP1 POP JUMP JUMPDEST DUP1 CALLDATALOAD PUSH1 0x1 PUSH1 0x1 PUSH1 0xA0 SHL SUB DUP2 AND DUP2 EQ PUSH2 0xE28 JUMPI PUSH1 0x0 DUP1 REVERT JUMPDEST SWAP2 SWAP1 POP JUMP JUMPDEST PUSH4 0x4E487B71 PUSH1 0xE0 SHL PUSH1 0x0 MSTORE PUSH1 0x41 PUSH1 0x4 MSTORE PUSH1 0x24 PUSH1 0x0 REVERT JUMPDEST PUSH1 0x0 DUP1 PUSH1 0x40 DUP4 DUP6 SUB SLT ISZERO PUSH2 0xE56 JUMPI PUSH1 0x0 DUP1 REVERT JUMPDEST PUSH2 0xE5F DUP4 PUSH2 0xE11 JUMP JUMPDEST SWAP2 POP PUSH1 0x20 DUP4 ADD CALLDATALOAD PUSH8 0xFFFFFFFFFFFFFFFF DUP1 DUP3 GT ISZERO PUSH2 0xE7C JUMPI PUSH1 0x0 DUP1 REVERT JUMPDEST DUP2 DUP6 ADD SWAP2 POP DUP6 PUSH1 0x1F DUP4 ADD SLT PUSH2 0xE90 JUMPI PUSH1 0x0 DUP1 REVERT JUMPDEST DUP2 CALLDATALOAD DUP2 DUP2 GT ISZERO PUSH2 0xEA2 JUMPI PUSH2 0xEA2 PUSH2 0xE2D JUMP JUMPDEST PUSH1 0x40 MLOAD PUSH1 0x1F DUP3 ADD PUSH1 0x1F NOT SWAP1 DUP2 AND PUSH1 0x3F ADD AND DUP2 ADD SWAP1 DUP4 DUP3 GT DUP2 DUP4 LT OR ISZERO PUSH2 0xECA JUMPI PUSH2 0xECA PUSH2 0xE2D JUMP JUMPDEST DUP2 PUSH1 0x40 MSTORE DUP3 DUP2 MSTORE DUP9 PUSH1 0x20 DUP5 DUP8 ADD ADD GT ISZERO PUSH2 0xEE3 JUMPI PUSH1 0x0 DUP1 REVERT JUMPDEST DUP3 PUSH1 0x20 DUP7 ADD PUSH1 0x20 DUP4 ADD CALLDATACOPY PUSH1 0x0 PUSH1 0x20 DUP5 DUP4 ADD ADD MSTORE DUP1 SWAP6 POP POP POP POP POP POP SWAP3 POP SWAP3 SWAP1 POP JUMP JUMPDEST PUSH1 0x0 DUP1 PUSH1 0x40 DUP4 DUP6 SUB SLT ISZERO PUSH2 0xF18 JUMPI PUSH1 0x0 DUP1 REVERT JUMPDEST POP POP DUP1 CALLDATALOAD SWAP3 PUSH1 0x20 SWAP1 SWAP2 ADD CALLDATALOAD SWAP2 POP JUMP JUMPDEST PUSH1 0x0 JUMPDEST DUP4 DUP2 LT ISZERO PUSH2 0xF42 JUMPI DUP2 DUP2 ADD MLOAD DUP4 DUP3 ADD MSTORE PUSH1 0x20 ADD PUSH2 0xF2A JUMP JUMPDEST POP POP PUSH1 0x0 SWAP2 ADD MSTORE JUMP JUMPDEST PUSH1 0x20 DUP2 MSTORE PUSH1 0x0 DUP3 MLOAD DUP1 PUSH1 0x20 DUP5 ADD MSTORE PUSH2 0xF6A DUP2 PUSH1 0x40 DUP6 ADD PUSH1 0x20 DUP8 ADD PUSH2 0xF27 JUMP JUMPDEST PUSH1 0x1F ADD PUSH1 0x1F NOT AND SWAP2 SWAP1 SWAP2 ADD PUSH1 0x40 ADD SWAP3 SWAP2 POP POP JUMP JUMPDEST PUSH1 0x0 DUP1 PUSH1 0x40 DUP4 DUP6 SUB SLT ISZERO PUSH2 0xF91 JUMPI PUSH1 0x0 DUP1 REVERT JUMPDEST PUSH2 0xF9A DUP4 PUSH2 0xE11 JUMP JUMPDEST SWAP5 PUSH1 0x20 SWAP4 SWAP1 SWAP4 ADD CALLDATALOAD SWAP4 POP POP POP JUMP JUMPDEST PUSH1 0x0 DUP1 PUSH1 0x0 DUP1 PUSH1 0x80 DUP6 DUP8 SUB SLT ISZERO PUSH2 0xFBE JUMPI PUSH1 0x0 DUP1 REVERT JUMPDEST DUP5 CALLDATALOAD SWAP4 POP PUSH1 0x20 DUP6 ADD CALLDATALOAD PUSH1 0x5 DUP2 LT PUSH2 0xFD4 JUMPI PUSH1 0x0 DUP1 REVERT JUMPDEST SWAP4 SWAP7 SWAP4 SWAP6 POP POP POP POP PUSH1 0x40 DUP3 ADD CALLDATALOAD SWAP2 PUSH1 0x60 ADD CALLDATALOAD SWAP1 JUMP JUMPDEST PUSH1 0x0 PUSH1 0x20 DUP3 DUP5 SUB SLT ISZERO PUSH2 0xFFB JUMPI PUSH1 0x0 DUP1 REVERT JUMPDEST PUSH2 0xCCF DUP3 PUSH2 0xE11 JUMP JUMPDEST PUSH1 0x0 DUP1 PUSH1 0x40 DUP4 DUP6 SUB SLT ISZERO PUSH2 0x1017 JUMPI PUSH1 0x0 DUP1 REVERT JUMPDEST DUP3 CALLDATALOAD SWAP2 POP PUSH2 0x1027 PUSH1 0x20 DUP5 ADD PUSH2 0xE11 JUMP JUMPDEST SWAP1 POP SWAP3 POP SWAP3 SWAP1 POP JUMP JUMPDEST PUSH4 0x4E487B71 PUSH1 0xE0 SHL PUSH1 0x0 MSTORE PUSH1 0x21 PUSH1 0x4 MSTORE PUSH1 0x24 PUSH1 0x0 REVERT JUMPDEST PUSH1 0x20 DUP2 ADD PUSH1 0x5 DUP4 LT PUSH2 0x1068 JUMPI PUSH4 0x4E487B71 PUSH1 0xE0 SHL PUSH1 0x0 MSTORE PUSH1 0x21 PUSH1 0x4 MSTORE PUSH1 0x24 PUSH1 0x0 REVERT JUMPDEST SWAP2 SWAP1 MSTORE SWAP1 JUMP JUMPDEST PUSH4 0x4E487B71 PUSH1 0xE0 SHL PUSH1 0x0 MSTORE PUSH1 0x11 PUSH1 0x4 MSTORE PUSH1 0x24 PUSH1 0x0 REVERT JUMPDEST DUP2 DUP2 SUB DUP2 DUP2 GT ISZERO PUSH2 0xA2D JUMPI PUSH2 0xA2D PUSH2 0x106E JUMP JUMPDEST PUSH1 0x1 DUP2 DUP2 JUMPDEST DUP1 DUP6 GT ISZERO PUSH2 0x10D2 JUMPI DUP2 PUSH1 0x0 NOT DIV DUP3 GT ISZERO PUSH2 0x10B8 JUMPI PUSH2 0x10B8 PUSH2 0x106E JUMP JUMPDEST DUP1 DUP6 AND ISZERO PUSH2 0x10C5 JUMPI SWAP2 DUP2 MUL SWAP2 JUMPDEST SWAP4 DUP5 SHR SWAP4 SWAP1 DUP1 MUL SWAP1 PUSH2 0x109C JUMP JUMPDEST POP SWAP3 POP SWAP3 SWAP1 POP JUMP JUMPDEST PUSH1 0x0 DUP3 PUSH2 0x10E9 JUMPI POP PUSH1 0x1 PUSH2 0xA2D JUMP JUMPDEST DUP2 PUSH2 0x10F6 JUMPI POP PUSH1 0x0 PUSH2 0xA2D JUMP JUMPDEST DUP2 PUSH1 0x1 DUP2 EQ PUSH2 0x110C JUMPI PUSH1 0x2 DUP2 EQ PUSH2 0x1116 JUMPI PUSH2 0x1132 JUMP JUMPDEST PUSH1 0x1 SWAP2 POP POP PUSH2 0xA2D JUMP JUMPDEST PUSH1 0xFF DUP5 GT ISZERO PUSH2 0x1127 JUMPI PUSH2 0x1127 PUSH2 0x106E JUMP JUMPDEST POP POP PUSH1 0x1 DUP3 SHL PUSH2 0xA2D JUMP JUMPDEST POP PUSH1 0x20 DUP4 LT PUSH2 0x133 DUP4 LT AND PUSH1 0x4E DUP5 LT PUSH1 0xB DUP5 LT AND OR ISZERO PUSH2 0x1155 JUMPI POP DUP2 DUP2 EXP PUSH2 0xA2D JUMP JUMPDEST PUSH2 0x115F DUP4 DUP4 PUSH2 0x1097 JUMP JUMPDEST DUP1 PUSH1 0x0 NOT DIV DUP3 GT ISZERO PUSH2 0x1173 JUMPI PUSH2 0x1173 PUSH2 0x106E JUMP JUMPDEST MUL SWAP4 SWAP3 POP POP POP JUMP JUMPDEST PUSH1 0x0 PUSH2 0xCCF DUP4 DUP4 PUSH2 0x10DA JUMP JUMPDEST DUP1 DUP3 MUL DUP2 ISZERO DUP3 DUP3 DIV DUP5 EQ OR PUSH2 0xA2D JUMPI PUSH2 0xA2D PUSH2 0x106E JUMP JUMPDEST PUSH1 0x1 DUP2 DUP2 SHR SWAP1 DUP3 AND DUP1 PUSH2 0x11B2 JUMPI PUSH1 0x7F DUP3 AND SWAP2 POP JUMPDEST PUSH1 0x20 DUP3 LT DUP2 SUB PUSH2 0x11D2 JUMPI PUSH4 0x4E487B71 PUSH1 0xE0 SHL PUSH1 0x0 MSTORE PUSH1 0x22 PUSH1 0x4 MSTORE PUSH1 0x24 PUSH1 0x0 REVERT JUMPDEST POP SWAP2 SWAP1 POP JUMP JUMPDEST PUSH1 0x1F DUP3 GT ISZERO PUSH2 0xB9D JUMPI PUSH1 0x0 DUP2 DUP2 MSTORE PUSH1 0x20 DUP2 KECCAK256 PUSH1 0x1F DUP6 ADD PUSH1 0x5 SHR DUP2 ADD PUSH1 0x20 DUP7 LT ISZERO PUSH2 0x11FF JUMPI POP DUP1 JUMPDEST PUSH1 0x1F DUP6 ADD PUSH1 0x5 SHR DUP3 ADD SWAP2 POP JUMPDEST DUP2 DUP2 LT ISZERO PUSH2 0x121E JUMPI DUP3 DUP2 SSTORE PUSH1 0x1 ADD PUSH2 0x120B JUMP JUMPDEST POP POP POP POP POP POP JUMP JUMPDEST DUP2 MLOAD PUSH8 0xFFFFFFFFFFFFFFFF DUP2 GT ISZERO PUSH2 0x1240 JUMPI PUSH2 0x1240 PUSH2 0xE2D JUMP JUMPDEST PUSH2 0x1254 DUP2 PUSH2 0x124E DUP5 SLOAD PUSH2 0x119E JUMP JUMPDEST DUP5 PUSH2 0x11D8 JUMP JUMPDEST PUSH1 0x20 DUP1 PUSH1 0x1F DUP4 GT PUSH1 0x1 DUP2 EQ PUSH2 0x1289 JUMPI PUSH1 0x0 DUP5 ISZERO PUSH2 0x1271 JUMPI POP DUP6 DUP4 ADD MLOAD JUMPDEST PUSH1 0x0 NOT PUSH1 0x3 DUP7 SWAP1 SHL SHR NOT AND PUSH1 0x1 DUP6 SWAP1 SHL OR DUP6 SSTORE PUSH2 0x121E JUMP JUMPDEST PUSH1 0x0 DUP6 DUP2 MSTORE PUSH1 0x20 DUP2 KECCAK256 PUSH1 0x1F NOT DUP7 AND SWAP2 JUMPDEST DUP3 DUP2 LT ISZERO PUSH2 0x12B8 JUMPI DUP9 DUP7 ADD MLOAD DUP3 SSTORE SWAP5 DUP5 ADD SWAP5 PUSH1 0x1 SWAP1 SWAP2 ADD SWAP1 DUP5 ADD PUSH2 0x1299 JUMP JUMPDEST POP DUP6 DUP3 LT ISZERO PUSH2 0x12D6 JUMPI DUP8 DUP6 ADD MLOAD PUSH1 0x0 NOT PUSH1 0x3 DUP9 SWAP1 SHL PUSH1 0xF8 AND SHR NOT AND DUP2 SSTORE JUMPDEST POP POP POP POP POP PUSH1 0x1 SWAP1 DUP2 SHL ADD SWAP1 SSTORE POP JUMP JUMPDEST PUSH1 0x0 DUP3 MLOAD PUSH2 0x12F8 DUP2 DUP5 PUSH1 0x20 DUP8 ADD PUSH2 0xF27 JUMP JUMPDEST SWAP2 SWAP1 SWAP2 ADD SWAP3 SWAP2 POP POP JUMP JUMPDEST PUSH1 0x0 PUSH1 0x20 DUP3 DUP5 SUB SLT ISZERO PUSH2 0x1314 JUMPI PUSH1 0x0 DUP1 REVERT JUMPDEST POP MLOAD SWAP2 SWAP1 POP JUMP JUMPDEST DUP1 DUP3 ADD DUP1 DUP3 GT ISZERO PUSH2 0xA2D JUMPI PUSH2 0xA2D PUSH2 0x106E JUMP JUMPDEST PUSH1 0x0 PUSH1 0x20 DUP3 DUP5 SUB SLT ISZERO PUSH2 0x1340 JUMPI PUSH1 0x0 DUP1 REVERT JUMPDEST DUP2 MLOAD DUP1 ISZERO ISZERO DUP2 EQ PUSH2 0xCCF JUMPI PUSH1 0x0 DUP1 REVERT INVALID LOG2 PUSH5 0x6970667358 0x22 SLT KECCAK256 0xD8 MSTORE8 0xC8 ADDRESS 0xB9 SELFDESTRUCT 0xAC NOT ORIGIN SWAP4 CODESIZE SLT CREATE 0x23 PUSH26 0x27EB876393DFD4162980A696FB77D7DD5264736F6C6343000814 STOP CALLER ",
          "linkReferences": {}
        },
        "methodIdentifiers": {
          "cleanOutdatedProposals(uint256)": "1a5bc391",
          "companyExecutingProposal(uint256)": "6cd03f71",
          "companyMakeDecision(uint256,uint8,uint256,uint256)": "91652454",
          "createProposal(address,string)": "1f4f7d29",
          "currentProposalId()": "feac729d",
          "fundProposal(uint256,uint256)": "4b55baa6",
          "lastProposalSerialNumber(address)": "97678bb3",
          "owner()": "8da5cb5b",
          "proposalIdToCompanyAddress(uint256)": "3bfe4ef1",
          "proposalIdToCurrentFunding(uint256)": "1ddaa278",
          "proposalIdToDeadline(uint256)": "2965b33d",
          "proposalIdToDecisionStatus(uint256)": "fea68fe8",
          "proposalIdToFundingGoal(uint256)": "3a0eee2a",
          "proposalIdToURI(uint256)": "5aa33839",
          "refundOutdatedProposal(uint256)": "81d56abe",
          "renounceOwnership()": "715018a6",
          "returnAmountFundedOfTheAddress(uint256,address)": "dccf9add",
          "returnSerialNumberOfTheProposalId(address,uint256)": "908e45e3",
          "transferOwnership(address)": "f2fde38b",
          "withdrawCommission()": "3e25e837"
        }
      }
    }
  }
}