{"abi":[{"type":"constructor","inputs":[{"name":"initialOwner","type":"address","internalType":"address"}],"stateMutability":"nonpayable"},{"type":"function","name":"DOMAIN_SEPARATOR","inputs":[],"outputs":[{"name":"","type":"bytes32","internalType":"bytes32"}],"stateMutability":"view"},{"type":"function","name":"allowance","inputs":[{"name":"owner","type":"address","internalType":"address"},{"name":"spender","type":"address","internalType":"address"}],"outputs":[{"name":"","type":"uint256","internalType":"uint256"}],"stateMutability":"view"},{"type":"function","name":"approve","inputs":[{"name":"spender","type":"address","internalType":"address"},{"name":"value","type":"uint256","internalType":"uint256"}],"outputs":[{"name":"","type":"bool","internalType":"bool"}],"stateMutability":"nonpayable"},{"type":"function","name":"balanceOf","inputs":[{"name":"account","type":"address","internalType":"address"}],"outputs":[{"name":"","type":"uint256","internalType":"uint256"}],"stateMutability":"view"},{"type":"function","name":"decimals","inputs":[],"outputs":[{"name":"","type":"uint8","internalType":"uint8"}],"stateMutability":"view"},{"type":"function","name":"eip712Domain","inputs":[],"outputs":[{"name":"fields","type":"bytes1","internalType":"bytes1"},{"name":"name","type":"string","internalType":"string"},{"name":"version","type":"string","internalType":"string"},{"name":"chainId","type":"uint256","internalType":"uint256"},{"name":"verifyingContract","type":"address","internalType":"address"},{"name":"salt","type":"bytes32","internalType":"bytes32"},{"name":"extensions","type":"uint256[]","internalType":"uint256[]"}],"stateMutability":"view"},{"type":"function","name":"mint","inputs":[{"name":"to","type":"address","internalType":"address"},{"name":"amount","type":"uint256","internalType":"uint256"}],"outputs":[],"stateMutability":"nonpayable"},{"type":"function","name":"name","inputs":[],"outputs":[{"name":"","type":"string","internalType":"string"}],"stateMutability":"view"},{"type":"function","name":"nonces","inputs":[{"name":"owner","type":"address","internalType":"address"}],"outputs":[{"name":"","type":"uint256","internalType":"uint256"}],"stateMutability":"view"},{"type":"function","name":"owner","inputs":[],"outputs":[{"name":"","type":"address","internalType":"address"}],"stateMutability":"view"},{"type":"function","name":"permit","inputs":[{"name":"owner","type":"address","internalType":"address"},{"name":"spender","type":"address","internalType":"address"},{"name":"value","type":"uint256","internalType":"uint256"},{"name":"deadline","type":"uint256","internalType":"uint256"},{"name":"v","type":"uint8","internalType":"uint8"},{"name":"r","type":"bytes32","internalType":"bytes32"},{"name":"s","type":"bytes32","internalType":"bytes32"}],"outputs":[],"stateMutability":"nonpayable"},{"type":"function","name":"renounceOwnership","inputs":[],"outputs":[],"stateMutability":"nonpayable"},{"type":"function","name":"symbol","inputs":[],"outputs":[{"name":"","type":"string","internalType":"string"}],"stateMutability":"view"},{"type":"function","name":"totalSupply","inputs":[],"outputs":[{"name":"","type":"uint256","internalType":"uint256"}],"stateMutability":"view"},{"type":"function","name":"transfer","inputs":[{"name":"to","type":"address","internalType":"address"},{"name":"value","type":"uint256","internalType":"uint256"}],"outputs":[{"name":"","type":"bool","internalType":"bool"}],"stateMutability":"nonpayable"},{"type":"function","name":"transferFrom","inputs":[{"name":"from","type":"address","internalType":"address"},{"name":"to","type":"address","internalType":"address"},{"name":"value","type":"uint256","internalType":"uint256"}],"outputs":[{"name":"","type":"bool","internalType":"bool"}],"stateMutability":"nonpayable"},{"type":"function","name":"transferOwnership","inputs":[{"name":"newOwner","type":"address","internalType":"address"}],"outputs":[],"stateMutability":"nonpayable"},{"type":"event","name":"Approval","inputs":[{"name":"owner","type":"address","indexed":true,"internalType":"address"},{"name":"spender","type":"address","indexed":true,"internalType":"address"},{"name":"value","type":"uint256","indexed":false,"internalType":"uint256"}],"anonymous":false},{"type":"event","name":"EIP712DomainChanged","inputs":[],"anonymous":false},{"type":"event","name":"OwnershipTransferred","inputs":[{"name":"previousOwner","type":"address","indexed":true,"internalType":"address"},{"name":"newOwner","type":"address","indexed":true,"internalType":"address"}],"anonymous":false},{"type":"event","name":"Transfer","inputs":[{"name":"from","type":"address","indexed":true,"internalType":"address"},{"name":"to","type":"address","indexed":true,"internalType":"address"},{"name":"value","type":"uint256","indexed":false,"internalType":"uint256"}],"anonymous":false},{"type":"error","name":"ECDSAInvalidSignature","inputs":[]},{"type":"error","name":"ECDSAInvalidSignatureLength","inputs":[{"name":"length","type":"uint256","internalType":"uint256"}]},{"type":"error","name":"ECDSAInvalidSignatureS","inputs":[{"name":"s","type":"bytes32","internalType":"bytes32"}]},{"type":"error","name":"ERC20InsufficientAllowance","inputs":[{"name":"spender","type":"address","internalType":"address"},{"name":"allowance","type":"uint256","internalType":"uint256"},{"name":"needed","type":"uint256","internalType":"uint256"}]},{"type":"error","name":"ERC20InsufficientBalance","inputs":[{"name":"sender","type":"address","internalType":"address"},{"name":"balance","type":"uint256","internalType":"uint256"},{"name":"needed","type":"uint256","internalType":"uint256"}]},{"type":"error","name":"ERC20InvalidApprover","inputs":[{"name":"approver","type":"address","internalType":"address"}]},{"type":"error","name":"ERC20InvalidReceiver","inputs":[{"name":"receiver","type":"address","internalType":"address"}]},{"type":"error","name":"ERC20InvalidSender","inputs":[{"name":"sender","type":"address","internalType":"address"}]},{"type":"error","name":"ERC20InvalidSpender","inputs":[{"name":"spender","type":"address","internalType":"address"}]},{"type":"error","name":"ERC2612ExpiredSignature","inputs":[{"name":"deadline","type":"uint256","internalType":"uint256"}]},{"type":"error","name":"ERC2612InvalidSigner","inputs":[{"name":"signer","type":"address","internalType":"address"},{"name":"owner","type":"address","internalType":"address"}]},{"type":"error","name":"InvalidAccountNonce","inputs":[{"name":"account","type":"address","internalType":"address"},{"name":"currentNonce","type":"uint256","internalType":"uint256"}]},{"type":"error","name":"InvalidShortString","inputs":[]},{"type":"error","name":"OwnableInvalidOwner","inputs":[{"name":"owner","type":"address","internalType":"address"}]},{"type":"error","name":"OwnableUnauthorizedAccount","inputs":[{"name":"account","type":"address","internalType":"address"}]},{"type":"error","name":"StringTooLong","inputs":[{"name":"str","type":"string","internalType":"string"}]}],"bytecode":{"object":"0x6101606040523480156200001257600080fd5b50604051620015a9380380620015a983398101604081905262000035916200029c565b604051806040016040528060098152602001682a32b9ba2a37b5b2b760b91b81525080604051806040016040528060018152602001603160f81b81525083604051806040016040528060098152602001682a32b9ba2a37b5b2b760b91b815250604051806040016040528060038152602001624d544b60e81b8152508160039081620000c2919062000373565b506004620000d1828262000373565b5050506001600160a01b0381166200010457604051631e4fbdf760e01b8152600060048201526024015b60405180910390fd5b6200010f81620001ce565b506200011d82600662000220565b610120526200012e81600762000220565b61014052815160208084019190912060e052815190820120610100524660a052620001bc60e05161010051604080517f8b73c3c69bb8fe3d512ecc4cf759cc79239f7b179b0ffacaa9a75d522b39400f60208201529081019290925260608201524660808201523060a082015260009060c00160405160208183030381529060405280519060200120905090565b60805250503060c05250620004b49050565b600580546001600160a01b038381166001600160a01b0319831681179093556040519116919082907f8be0079c531659141344cd1fd0a4f28419497f9722a3daafe3b4186f6b6457e090600090a35050565b60006020835110156200024057620002388362000259565b905062000253565b816200024d848262000373565b5060ff90505b92915050565b600080829050601f8151111562000287578260405163305a27a960e01b8152600401620000fb91906200043f565b805162000294826200048f565b179392505050565b600060208284031215620002af57600080fd5b81516001600160a01b0381168114620002c757600080fd5b9392505050565b634e487b7160e01b600052604160045260246000fd5b600181811c90821680620002f957607f821691505b6020821081036200031a57634e487b7160e01b600052602260045260246000fd5b50919050565b601f8211156200036e57600081815260208120601f850160051c81016020861015620003495750805b601f850160051c820191505b818110156200036a5782815560010162000355565b5050505b505050565b81516001600160401b038111156200038f576200038f620002ce565b620003a781620003a08454620002e4565b8462000320565b602080601f831160018114620003df5760008415620003c65750858301515b600019600386901b1c1916600185901b1785556200036a565b600085815260208120601f198616915b828110156200041057888601518255948401946001909101908401620003ef565b50858210156200042f5787850151600019600388901b60f8161c191681555b5050505050600190811b01905550565b600060208083528351808285015260005b818110156200046e5785810183015185820160400152820162000450565b506000604082860101526040601f19601f8301168501019250505092915050565b805160208083015191908110156200031a5760001960209190910360031b1b16919050565b60805160a05160c05160e05161010051610120516101405161109a6200050f60003960006108a001526000610873015260006107660152600061073e01526000610699015260006106c3015260006106ed015261109a6000f3fe608060405234801561001057600080fd5b506004361061010b5760003560e01c8063715018a6116100a257806395d89b411161007157806395d89b411461021c578063a9059cbb14610224578063d505accf14610237578063dd62ed3e1461024a578063f2fde38b1461028357600080fd5b8063715018a6146101cb5780637ecebe00146101d357806384b0196e146101e65780638da5cb5b1461020157600080fd5b8063313ce567116100de578063313ce567146101765780633644e5151461018557806340c10f191461018d57806370a08231146101a257600080fd5b806306fdde0314610110578063095ea7b31461012e57806318160ddd1461015157806323b872dd14610163575b600080fd5b610118610296565b6040516101259190610e00565b60405180910390f35b61014161013c366004610e36565b610328565b6040519015158152602001610125565b6002545b604051908152602001610125565b610141610171366004610e60565b610342565b60405160128152602001610125565b610155610366565b6101a061019b366004610e36565b610375565b005b6101556101b0366004610e9c565b6001600160a01b031660009081526020819052604090205490565b6101a061038b565b6101556101e1366004610e9c565b61039f565b6101ee6103bd565b6040516101259796959493929190610eb7565b6005546040516001600160a01b039091168152602001610125565b610118610403565b610141610232366004610e36565b610412565b6101a0610245366004610f4d565b610420565b610155610258366004610fc0565b6001600160a01b03918216600090815260016020908152604080832093909416825291909152205490565b6101a0610291366004610e9c565b61055f565b6060600380546102a590610ff3565b80601f01602080910402602001604051908101604052809291908181526020018280546102d190610ff3565b801561031e5780601f106102f35761010080835404028352916020019161031e565b820191906000526020600020905b81548152906001019060200180831161030157829003601f168201915b5050505050905090565b60003361033681858561059d565b60019150505b92915050565b6000336103508582856105af565b61035b85858561062d565b506001949350505050565b600061037061068c565b905090565b61037d6107b7565b61038782826107e4565b5050565b6103936107b7565b61039d600061081a565b565b6001600160a01b03811660009081526008602052604081205461033c565b6000606080600080600060606103d161086c565b6103d9610899565b60408051600080825260208201909252600f60f81b9b939a50919850469750309650945092509050565b6060600480546102a590610ff3565b60003361033681858561062d565b834211156104495760405163313c898160e11b8152600481018590526024015b60405180910390fd5b60007f6e71edae12b1b97f4d1f60370fef10105fa2faae0126114a169c64845d6126c98888886104968c6001600160a01b0316600090815260086020526040902080546001810190915590565b6040805160208101969096526001600160a01b0394851690860152929091166060840152608083015260a082015260c0810186905260e00160405160208183030381529060405280519060200120905060006104f1826108c6565b90506000610501828787876108f3565b9050896001600160a01b0316816001600160a01b031614610548576040516325c0072360e11b81526001600160a01b0380831660048301528b166024820152604401610440565b6105538a8a8a61059d565b50505050505050505050565b6105676107b7565b6001600160a01b03811661059157604051631e4fbdf760e01b815260006004820152602401610440565b61059a8161081a565b50565b6105aa8383836001610921565b505050565b6001600160a01b038381166000908152600160209081526040808320938616835292905220546000198114610627578181101561061857604051637dc7a0d960e11b81526001600160a01b03841660048201526024810182905260448101839052606401610440565b61062784848484036000610921565b50505050565b6001600160a01b03831661065757604051634b637e8f60e11b815260006004820152602401610440565b6001600160a01b0382166106815760405163ec442f0560e01b815260006004820152602401610440565b6105aa8383836109f6565b6000306001600160a01b037f0000000000000000000000000000000000000000000000000000000000000000161480156106e557507f000000000000000000000000000000000000000000000000000000000000000046145b1561070f57507f000000000000000000000000000000000000000000000000000000000000000090565b610370604080517f8b73c3c69bb8fe3d512ecc4cf759cc79239f7b179b0ffacaa9a75d522b39400f60208201527f0000000000000000000000000000000000000000000000000000000000000000918101919091527f000000000000000000000000000000000000000000000000000000000000000060608201524660808201523060a082015260009060c00160405160208183030381529060405280519060200120905090565b6005546001600160a01b0316331461039d5760405163118cdaa760e01b8152336004820152602401610440565b6001600160a01b03821661080e5760405163ec442f0560e01b815260006004820152602401610440565b610387600083836109f6565b600580546001600160a01b038381166001600160a01b0319831681179093556040519116919082907f8be0079c531659141344cd1fd0a4f28419497f9722a3daafe3b4186f6b6457e090600090a35050565b60606103707f00000000000000000000000000000000000000000000000000000000000000006006610b20565b60606103707f00000000000000000000000000000000000000000000000000000000000000006007610b20565b600061033c6108d361068c565b8360405161190160f01b8152600281019290925260228201526042902090565b60008060008061090588888888610bcb565b9250925092506109158282610c9a565b50909695505050505050565b6001600160a01b03841661094b5760405163e602df0560e01b815260006004820152602401610440565b6001600160a01b03831661097557604051634a1406b160e11b815260006004820152602401610440565b6001600160a01b038085166000908152600160209081526040808320938716835292905220829055801561062757826001600160a01b0316846001600160a01b03167f8c5be1e5ebec7d5bd14f71427d1e84f3dd0314c0f7b2291e5b200ac8c7c3b925846040516109e891815260200190565b60405180910390a350505050565b6001600160a01b038316610a21578060026000828254610a16919061102d565b90915550610a939050565b6001600160a01b03831660009081526020819052604090205481811015610a745760405163391434e360e21b81526001600160a01b03851660048201526024810182905260448101839052606401610440565b6001600160a01b03841660009081526020819052604090209082900390555b6001600160a01b038216610aaf57600280548290039055610ace565b6001600160a01b03821660009081526020819052604090208054820190555b816001600160a01b0316836001600160a01b03167fddf252ad1be2c89b69c2b068fc378daa952ba7f163c4a11628f55a4df523b3ef83604051610b1391815260200190565b60405180910390a3505050565b606060ff8314610b3a57610b3383610d53565b905061033c565b818054610b4690610ff3565b80601f0160208091040260200160405190810160405280929190818152602001828054610b7290610ff3565b8015610bbf5780601f10610b9457610100808354040283529160200191610bbf565b820191906000526020600020905b815481529060010190602001808311610ba257829003601f168201915b5050505050905061033c565b600080807f7fffffffffffffffffffffffffffffff5d576e7357a4501ddfe92f46681b20a0841115610c065750600091506003905082610c90565b604080516000808252602082018084528a905260ff891692820192909252606081018790526080810186905260019060a0016020604051602081039080840390855afa158015610c5a573d6000803e3d6000fd5b5050604051601f1901519150506001600160a01b038116610c8657506000925060019150829050610c90565b9250600091508190505b9450945094915050565b6000826003811115610cae57610cae61104e565b03610cb7575050565b6001826003811115610ccb57610ccb61104e565b03610ce95760405163f645eedf60e01b815260040160405180910390fd5b6002826003811115610cfd57610cfd61104e565b03610d1e5760405163fce698f760e01b815260048101829052602401610440565b6003826003811115610d3257610d3261104e565b03610387576040516335e2f38360e21b815260048101829052602401610440565b60606000610d6083610d92565b604080516020808252818301909252919250600091906020820181803683375050509182525060208101929092525090565b600060ff8216601f81111561033c57604051632cd44ac360e21b815260040160405180910390fd5b6000815180845260005b81811015610de057602081850181015186830182015201610dc4565b506000602082860101526020601f19601f83011685010191505092915050565b602081526000610e136020830184610dba565b9392505050565b80356001600160a01b0381168114610e3157600080fd5b919050565b60008060408385031215610e4957600080fd5b610e5283610e1a565b946020939093013593505050565b600080600060608486031215610e7557600080fd5b610e7e84610e1a565b9250610e8c60208501610e1a565b9150604084013590509250925092565b600060208284031215610eae57600080fd5b610e1382610e1a565b60ff60f81b881681526000602060e081840152610ed760e084018a610dba565b8381036040850152610ee9818a610dba565b606085018990526001600160a01b038816608086015260a0850187905284810360c0860152855180825283870192509083019060005b81811015610f3b57835183529284019291840191600101610f1f565b50909c9b505050505050505050505050565b600080600080600080600060e0888a031215610f6857600080fd5b610f7188610e1a565b9650610f7f60208901610e1a565b95506040880135945060608801359350608088013560ff81168114610fa357600080fd5b9699959850939692959460a0840135945060c09093013592915050565b60008060408385031215610fd357600080fd5b610fdc83610e1a565b9150610fea60208401610e1a565b90509250929050565b600181811c9082168061100757607f821691505b60208210810361102757634e487b7160e01b600052602260045260246000fd5b50919050565b8082018082111561033c57634e487b7160e01b600052601160045260246000fd5b634e487b7160e01b600052602160045260246000fdfea264697066735822122024eb90d1c81a1212aca00c9f75bda0cd588f3e55e2dddb57ff72d098c9f6001e64736f6c63430008140033","linkReferences":{}},"methodIdentifiers":{"DOMAIN_SEPARATOR()":"3644e515","allowance(address,address)":"dd62ed3e","approve(address,uint256)":"095ea7b3","balanceOf(address)":"70a08231","decimals()":"313ce567","eip712Domain()":"84b0196e","mint(address,uint256)":"40c10f19","name()":"06fdde03","nonces(address)":"7ecebe00","owner()":"8da5cb5b","permit(address,address,uint256,uint256,uint8,bytes32,bytes32)":"d505accf","renounceOwnership()":"715018a6","symbol()":"95d89b41","totalSupply()":"18160ddd","transfer(address,uint256)":"a9059cbb","transferFrom(address,address,uint256)":"23b872dd","transferOwnership(address)":"f2fde38b"},"id":18}