{"abi":[{"type":"constructor","inputs":[{"name":"_usdtTokenAddress","type":"address","internalType":"address"}],"stateMutability":"nonpayable"},{"type":"function","name":"cleanOutdatedProposals","inputs":[{"name":"proposalId","type":"uint256","internalType":"uint256"}],"outputs":[],"stateMutability":"nonpayable"},{"type":"function","name":"companyExecutingProposal","inputs":[{"name":"proposalId","type":"uint256","internalType":"uint256"}],"outputs":[],"stateMutability":"nonpayable"},{"type":"function","name":"companyMakeDecision","inputs":[{"name":"proposalId","type":"uint256","internalType":"uint256"},{"name":"decision","type":"uint8","internalType":"enum MainContract.Decision"},{"name":"fundingGoal","type":"uint256","internalType":"uint256"},{"name":"deadline","type":"uint256","internalType":"uint256"}],"outputs":[],"stateMutability":"nonpayable"},{"type":"function","name":"createProposal","inputs":[{"name":"toCompanyAddress","type":"address","internalType":"address"},{"name":"proposalURI","type":"string","internalType":"string"}],"outputs":[],"stateMutability":"nonpayable"},{"type":"function","name":"currentProposalId","inputs":[],"outputs":[{"name":"","type":"uint256","internalType":"uint256"}],"stateMutability":"view"},{"type":"function","name":"fundProposal","inputs":[{"name":"proposalId","type":"uint256","internalType":"uint256"},{"name":"fundingAmount","type":"uint256","internalType":"uint256"}],"outputs":[],"stateMutability":"nonpayable"},{"type":"function","name":"lastProposalSerialNumber","inputs":[{"name":"","type":"address","internalType":"address"}],"outputs":[{"name":"","type":"uint256","internalType":"uint256"}],"stateMutability":"view"},{"type":"function","name":"owner","inputs":[],"outputs":[{"name":"","type":"address","internalType":"address"}],"stateMutability":"view"},{"type":"function","name":"proposalIdToCompanyAddress","inputs":[{"name":"","type":"uint256","internalType":"uint256"}],"outputs":[{"name":"","type":"address","internalType":"address"}],"stateMutability":"view"},{"type":"function","name":"proposalIdToCurrentFunding","inputs":[{"name":"","type":"uint256","internalType":"uint256"}],"outputs":[{"name":"","type":"uint256","internalType":"uint256"}],"stateMutability":"view"},{"type":"function","name":"proposalIdToDeadline","inputs":[{"name":"","type":"uint256","internalType":"uint256"}],"outputs":[{"name":"","type":"uint256","internalType":"uint256"}],"stateMutability":"view"},{"type":"function","name":"proposalIdToDecisionStatus","inputs":[{"name":"","type":"uint256","internalType":"uint256"}],"outputs":[{"name":"","type":"uint8","internalType":"enum MainContract.Decision"}],"stateMutability":"view"},{"type":"function","name":"proposalIdToFundingGoal","inputs":[{"name":"","type":"uint256","internalType":"uint256"}],"outputs":[{"name":"","type":"uint256","internalType":"uint256"}],"stateMutability":"view"},{"type":"function","name":"proposalIdToURI","inputs":[{"name":"","type":"uint256","internalType":"uint256"}],"outputs":[{"name":"","type":"string","internalType":"string"}],"stateMutability":"view"},{"type":"function","name":"refundOutdatedProposal","inputs":[{"name":"proposalId","type":"uint256","internalType":"uint256"}],"outputs":[],"stateMutability":"nonpayable"},{"type":"function","name":"renounceOwnership","inputs":[],"outputs":[],"stateMutability":"nonpayable"},{"type":"function","name":"returnAmountFundedOfTheAddress","inputs":[{"name":"proposalId","type":"uint256","internalType":"uint256"},{"name":"contributorAddress","type":"address","internalType":"address"}],"outputs":[{"name":"","type":"uint256","internalType":"uint256"}],"stateMutability":"view"},{"type":"function","name":"returnSerialNumberOfTheProposalId","inputs":[{"name":"companyAddress","type":"address","internalType":"address"},{"name":"serialNumber","type":"uint256","internalType":"uint256"}],"outputs":[{"name":"","type":"uint256","internalType":"uint256"}],"stateMutability":"view"},{"type":"function","name":"transferOwnership","inputs":[{"name":"newOwner","type":"address","internalType":"address"}],"outputs":[],"stateMutability":"nonpayable"},{"type":"function","name":"withdrawCommission","inputs":[],"outputs":[],"stateMutability":"nonpayable"},{"type":"event","name":"MainContract__CommissionWithdrawn","inputs":[{"name":"commissionAmount","type":"uint256","indexed":true,"internalType":"uint256"}],"anonymous":false},{"type":"event","name":"MainContract__CompanyExecutingProposal","inputs":[{"name":"proposalId","type":"uint256","indexed":true,"internalType":"uint256"},{"name":"currentFunding","type":"uint256","indexed":true,"internalType":"uint256"},{"name":"decisionStatus","type":"uint8","indexed":false,"internalType":"enum MainContract.Decision"},{"name":"timeStamp","type":"uint256","indexed":false,"internalType":"uint256"}],"anonymous":false},{"type":"event","name":"MainContract__ProposalCreated","inputs":[{"name":"proposalId","type":"uint256","indexed":true,"internalType":"uint256"},{"name":"toCompanyAddress","type":"address","indexed":true,"internalType":"address"},{"name":"fromAddress","type":"address","indexed":true,"internalType":"address"},{"name":"proposalURI","type":"string","indexed":false,"internalType":"string"},{"name":"decisionStatus","type":"uint8","indexed":false,"internalType":"enum MainContract.Decision"},{"name":"fundingGoal","type":"uint256","indexed":false,"internalType":"uint256"},{"name":"currentFunding","type":"uint256","indexed":false,"internalType":"uint256"},{"name":"deadline","type":"uint256","indexed":false,"internalType":"uint256"}],"anonymous":false},{"type":"event","name":"MainContract__ProposalFunded","inputs":[{"name":"proposalId","type":"uint256","indexed":true,"internalType":"uint256"},{"name":"fundingAmount","type":"uint256","indexed":true,"internalType":"uint256"}],"anonymous":false},{"type":"event","name":"MainContract__ProposalFundingGoalAndDeadlineUpdated","inputs":[{"name":"proposalId","type":"uint256","indexed":true,"internalType":"uint256"},{"name":"fundingGoal","type":"uint256","indexed":false,"internalType":"uint256"},{"name":"deadline","type":"uint256","indexed":false,"internalType":"uint256"}],"anonymous":false},{"type":"event","name":"MainContract__ProposalStatusChanged","inputs":[{"name":"proposalId","type":"uint256","indexed":true,"internalType":"uint256"},{"name":"decisionStatus","type":"uint8","indexed":false,"internalType":"enum MainContract.Decision"}],"anonymous":false},{"type":"event","name":"MainContract__RefundIssued","inputs":[{"name":"proposalId","type":"uint256","indexed":true,"internalType":"uint256"},{"name":"recipient","type":"address","indexed":true,"internalType":"address"},{"name":"amount","type":"uint256","indexed":true,"internalType":"uint256"}],"anonymous":false},{"type":"event","name":"OwnershipTransferred","inputs":[{"name":"previousOwner","type":"address","indexed":true,"internalType":"address"},{"name":"newOwner","type":"address","indexed":true,"internalType":"address"}],"anonymous":false},{"type":"error","name":"AddressEmptyCode","inputs":[{"name":"target","type":"address","internalType":"address"}]},{"type":"error","name":"AddressInsufficientBalance","inputs":[{"name":"account","type":"address","internalType":"address"}]},{"type":"error","name":"FailedInnerCall","inputs":[]},{"type":"error","name":"MainContract__NotAllowedToPerformThisAction","inputs":[]},{"type":"error","name":"MainContract__NotEnoughCommissionAccumulated","inputs":[]},{"type":"error","name":"MainContract__ProposalDoesNotExist","inputs":[]},{"type":"error","name":"MainContract__ProposalIsNotInAcceptedStatus","inputs":[]},{"type":"error","name":"MainContract__ProposalIsNotRejected","inputs":[]},{"type":"error","name":"MainContract__ProposalIsOutdated","inputs":[]},{"type":"error","name":"MainContract__ProposalIsStillActive","inputs":[]},{"type":"error","name":"OwnableInvalidOwner","inputs":[{"name":"owner","type":"address","internalType":"address"}]},{"type":"error","name":"OwnableUnauthorizedAccount","inputs":[{"name":"account","type":"address","internalType":"address"}]},{"type":"error","name":"SafeERC20FailedOperation","inputs":[{"name":"token","type":"address","internalType":"address"}]}],"bytecode":{"object":"0x60c0604052600180553480156200001557600080fd5b50604051620017c6380380620017c6833981016040819052620000389162000139565b33806200005f57604051631e4fbdf760e01b81526000600482015260240160405180910390fd5b6200006a81620000e9565b506001600160a01b03811660808190526040805163313ce56760e01b8152905163313ce567916004808201926020929091908290030181865afa158015620000b6573d6000803e3d6000fd5b505050506040513d601f19601f82011682018060405250810190620000dc91906200016b565b60ff1660a0525062000190565b600080546001600160a01b038381166001600160a01b0319831681178455604051919092169283917f8be0079c531659141344cd1fd0a4f28419497f9722a3daafe3b4186f6b6457e09190a35050565b6000602082840312156200014c57600080fd5b81516001600160a01b03811681146200016457600080fd5b9392505050565b6000602082840312156200017e57600080fd5b815160ff811681146200016457600080fd5b60805160a0516115d1620001f5600039600081816103e5015281816105070152818161065f01526106bc01526000818161042901528181610542015281816105e5015281816107110152818161085f01528181610a1b0152610b5401526115d16000f3fe608060405234801561001057600080fd5b506004361061012c5760003560e01c8063715018a6116100ad57806397678bb31161007157806397678bb3146102ad578063dccf9add146102cd578063f2fde38b14610303578063fea68fe814610316578063feac729d1461034657600080fd5b8063715018a61461025b57806381d56abe146102635780638da5cb5b14610276578063908e45e314610287578063916524541461029a57600080fd5b80633bfe4ef1116100f45780633bfe4ef1146101cc5780633e25e8371461020d5780634b55baa6146102155780635aa33839146102285780636cd03f711461024857600080fd5b80631a5bc391146101315780631ddaa278146101465780631f4f7d29146101795780632965b33d1461018c5780633a0eee2a146101ac575b600080fd5b61014461013f366004610fd6565b61034f565b005b610166610154366004610fd6565b60096020526000908152604090205481565b6040519081526020015b60405180910390f35b610144610187366004611021565b61048c565b61016661019a366004610fd6565b600b6020526000908152604090205481565b6101666101ba366004610fd6565b60086020526000908152604090205481565b6101f56101da366004610fd6565b6007602052600090815260409020546001600160a01b031681565b6040516001600160a01b039091168152602001610170565b6101446105c5565b6101446102233660046110e3565b610767565b61023b610236366004610fd6565b6108b8565b6040516101709190611155565b610144610256366004610fd6565b610952565b610144610a82565b610144610271366004610fd6565b610a96565b6000546001600160a01b03166101f5565b610166610295366004611168565b610bae565b6101446102a8366004611192565b610bd9565b6101666102bb3660046111d3565b60046020526000908152604090205481565b6101666102db3660046111ee565b6000918252600a602090815260408084206001600160a01b0393909316845291905290205490565b6101446103113660046111d3565b610cd9565b610339610324366004610fd6565b60056020526000908152604090205460ff1681565b6040516101709190611252565b61016660015481565b6000818152600b602052604090205442101561037e57604051639cde56e760e01b815260040160405180910390fd5b600160008281526005602052604090205460ff1660048111156103a3576103a361121a565b146103c1576040516376b52c0360e01b815260040160405180910390fd5b6000818152600560205260409020805460ff191660041790556104503361040960017f0000000000000000000000000000000000000000000000000000000000000000611276565b61041490600a61136d565b61041f906001611379565b6001600160a01b037f0000000000000000000000000000000000000000000000000000000000000000169190610d1c565b807f4fb345fea50d79425113c86459bd648f7c2f4e63316f4508559285ac2fc8786f60046040516104819190611252565b60405180910390a250565b60015460008181526006602052604090206104a78382611418565b506001600160a01b038316600081815260036020908152604080832060048352818420805485529083528184208690558590558483526007909152902080546001600160a01b0319169091179055600180548101905561056a333061052d7f0000000000000000000000000000000000000000000000000000000000000000600a61136d565b61053890600a611379565b6001600160a01b037f000000000000000000000000000000000000000000000000000000000000000016929190610d80565b336001600160a01b0316836001600160a01b0316827f4c5b3a7d9f8d6ce3e91d16ac833526821ae579b61bf5cd5defbb72c14a5203e3856000806000806040516105b89594939291906114d8565b60405180910390a4505050565b6105cd610dbf565b6040516370a0823160e01b81523060048201526000907f00000000000000000000000000000000000000000000000000000000000000006001600160a01b0316906370a0823190602401602060405180830381865afa158015610634573d6000803e3d6000fd5b505050506040513d601f19601f820116820180604052508101906106589190611516565b90506106857f0000000000000000000000000000000000000000000000000000000000000000600a61136d565b6106919061012c611379565b8110156106b157604051630cb2a1c560e11b815260040160405180910390fd5b6002546000906106e27f0000000000000000000000000000000000000000000000000000000000000000600a61136d565b6106ee9061012c611379565b6106f89084611276565b6107029190611276565b90506107386001600160a01b037f0000000000000000000000000000000000000000000000000000000000000000163383610d1c565b60405181907f7d3bfc819c03fed5dc747fb26b4f6918d2d00052edcbb5202f6a36c154dd925e90600090a25050565b816001541161078957604051633f11ad4160e11b815260040160405180910390fd5b600160008381526005602052604090205460ff1660048111156107ae576107ae61121a565b146107cc576040516376b52c0360e01b815260040160405180910390fd5b6000828152600b60205260409020544211156107fb5760405163326cd23760e11b815260040160405180910390fd5b6000828152600960205260408120805483929061081990849061152f565b90915550506000828152600a6020908152604080832033845290915281208290556002805483929061084c90849061152f565b9091555061088790506001600160a01b037f000000000000000000000000000000000000000000000000000000000000000016333084610d80565b604051819083907fb8a97e222da5a67c303fce770fe57c0699d5b7e74c05aaa6a2b18d27d9ac683190600090a35050565b600660205260009081526040902080546108d190611390565b80601f01602080910402602001604051908101604052809291908181526020018280546108fd90611390565b801561094a5780601f1061091f5761010080835404028352916020019161094a565b820191906000526020600020905b81548152906001019060200180831161092d57829003601f168201915b505050505081565b6000818152600760205260409020546001600160a01b031633146109895760405163051007fd60e31b815260040160405180910390fd5b600160008281526005602052604090205460ff1660048111156109ae576109ae61121a565b146109cc576040516376b52c0360e01b815260040160405180910390fd5b6000818152600560209081526040808320805460ff19166003179055600990915281208054908290556002805491928392610a08908490611276565b90915550610a4290506001600160a01b037f0000000000000000000000000000000000000000000000000000000000000000163383610d1c565b80827f9471a6cc5ce894a1eae397d176689325f9651428e7b830470846dfb810175a56600342604051610a76929190611542565b60405180910390a35050565b610a8a610dbf565b610a946000610dec565b565b600460008281526005602052604090205460ff166004811115610abb57610abb61121a565b14610ad9576040516335ffc37b60e01b815260040160405180910390fd5b6000818152600a602090815260408083203384529091528120546002805491928392610b06908490611276565b90915550506000828152600a602090815260408083203384528252808320839055848352600990915281208054839290610b41908490611276565b90915550610b7b90506001600160a01b037f0000000000000000000000000000000000000000000000000000000000000000163383610d1c565b6040518190339084907f4e5fa6eedcbb6ca04870cde32a85ffe1ae6ea63a5f163056cf9593440bd466e190600090a45050565b6001600160a01b03821660009081526003602090815260408083208484529091529020545b92915050565b6000848152600760205260409020546001600160a01b03163314610c105760405163051007fd60e31b815260040160405180910390fd5b6000848152600560205260409020805484919060ff19166001836004811115610c3b57610c3b61121a565b02179055506000848152600860209081526040808320859055600b909152908190208290555184907f4fb345fea50d79425113c86459bd648f7c2f4e63316f4508559285ac2fc8786f90610c90908690611252565b60405180910390a2604080518381526020810183905285917ff67d729d0f48bf64051081e605310ab44d445775aea5140eafce0fdf43e5df6e910160405180910390a250505050565b610ce1610dbf565b6001600160a01b038116610d1057604051631e4fbdf760e01b8152600060048201526024015b60405180910390fd5b610d1981610dec565b50565b6040516001600160a01b03838116602483015260448201839052610d7b91859182169063a9059cbb906064015b604051602081830303815290604052915060e01b6020820180516001600160e01b038381831617835250505050610e3c565b505050565b6040516001600160a01b038481166024830152838116604483015260648201839052610db99186918216906323b872dd90608401610d49565b50505050565b6000546001600160a01b03163314610a945760405163118cdaa760e01b8152336004820152602401610d07565b600080546001600160a01b038381166001600160a01b0319831681178455604051919092169283917f8be0079c531659141344cd1fd0a4f28419497f9722a3daafe3b4186f6b6457e09190a35050565b6000610e516001600160a01b03841683610e9f565b90508051600014158015610e76575080806020019051810190610e74919061155d565b155b15610d7b57604051635274afe760e01b81526001600160a01b0384166004820152602401610d07565b6060610ead83836000610eb4565b9392505050565b606081471015610ed95760405163cd78605960e01b8152306004820152602401610d07565b600080856001600160a01b03168486604051610ef5919061157f565b60006040518083038185875af1925050503d8060008114610f32576040519150601f19603f3d011682016040523d82523d6000602084013e610f37565b606091505b5091509150610f47868383610f51565b9695505050505050565b606082610f6657610f6182610fad565b610ead565b8151158015610f7d57506001600160a01b0384163b155b15610fa657604051639996b31560e01b81526001600160a01b0385166004820152602401610d07565b5080610ead565b805115610fbd5780518082602001fd5b604051630a12f52160e11b815260040160405180910390fd5b600060208284031215610fe857600080fd5b5035919050565b80356001600160a01b038116811461100657600080fd5b919050565b634e487b7160e01b600052604160045260246000fd5b6000806040838503121561103457600080fd5b61103d83610fef565b9150602083013567ffffffffffffffff8082111561105a57600080fd5b818501915085601f83011261106e57600080fd5b8135818111156110805761108061100b565b604051601f8201601f19908116603f011681019083821181831017156110a8576110a861100b565b816040528281528860208487010111156110c157600080fd5b8260208601602083013760006020848301015280955050505050509250929050565b600080604083850312156110f657600080fd5b50508035926020909101359150565b60005b83811015611120578181015183820152602001611108565b50506000910152565b60008151808452611141816020860160208601611105565b601f01601f19169290920160200192915050565b602081526000610ead6020830184611129565b6000806040838503121561117b57600080fd5b61118483610fef565b946020939093013593505050565b600080600080608085870312156111a857600080fd5b843593506020850135600581106111be57600080fd5b93969395505050506040820135916060013590565b6000602082840312156111e557600080fd5b610ead82610fef565b6000806040838503121561120157600080fd5b8235915061121160208401610fef565b90509250929050565b634e487b7160e01b600052602160045260246000fd5b6005811061124e57634e487b7160e01b600052602160045260246000fd5b9052565b60208101610bd38284611230565b634e487b7160e01b600052601160045260246000fd5b81810381811115610bd357610bd3611260565b600181815b808511156112c45781600019048211156112aa576112aa611260565b808516156112b757918102915b93841c939080029061128e565b509250929050565b6000826112db57506001610bd3565b816112e857506000610bd3565b81600181146112fe576002811461130857611324565b6001915050610bd3565b60ff84111561131957611319611260565b50506001821b610bd3565b5060208310610133831016604e8410600b8410161715611347575081810a610bd3565b6113518383611289565b806000190482111561136557611365611260565b029392505050565b6000610ead83836112cc565b8082028115828204841417610bd357610bd3611260565b600181811c908216806113a457607f821691505b6020821081036113c457634e487b7160e01b600052602260045260246000fd5b50919050565b601f821115610d7b57600081815260208120601f850160051c810160208610156113f15750805b601f850160051c820191505b81811015611410578281556001016113fd565b505050505050565b815167ffffffffffffffff8111156114325761143261100b565b611446816114408454611390565b846113ca565b602080601f83116001811461147b57600084156114635750858301515b600019600386901b1c1916600185901b178555611410565b600085815260208120601f198616915b828110156114aa5788860151825594840194600190910190840161148b565b50858210156114c85787850151600019600388901b60f8161c191681555b5050505050600190811b01905550565b60a0815260006114eb60a0830188611129565b90506114fa6020830187611230565b8460408301528360608301528260808301529695505050505050565b60006020828403121561152857600080fd5b5051919050565b80820180821115610bd357610bd3611260565b604081016115508285611230565b8260208301529392505050565b60006020828403121561156f57600080fd5b81518015158114610ead57600080fd5b60008251611591818460208701611105565b919091019291505056fea2646970667358221220d6b3f5eab1bc80799e1bfc719d49f6b87c3397830747e25762517bb31d3e9efc64736f6c63430008140033","linkReferences":{}},"methodIdentifiers":{"cleanOutdatedProposals(uint256)":"1a5bc391","companyExecutingProposal(uint256)":"6cd03f71","companyMakeDecision(uint256,uint8,uint256,uint256)":"91652454","createProposal(address,string)":"1f4f7d29","currentProposalId()":"feac729d","fundProposal(uint256,uint256)":"4b55baa6","lastProposalSerialNumber(address)":"97678bb3","owner()":"8da5cb5b","proposalIdToCompanyAddress(uint256)":"3bfe4ef1","proposalIdToCurrentFunding(uint256)":"1ddaa278","proposalIdToDeadline(uint256)":"2965b33d","proposalIdToDecisionStatus(uint256)":"fea68fe8","proposalIdToFundingGoal(uint256)":"3a0eee2a","proposalIdToURI(uint256)":"5aa33839","refundOutdatedProposal(uint256)":"81d56abe","renounceOwnership()":"715018a6","returnAmountFundedOfTheAddress(uint256,address)":"dccf9add","returnSerialNumberOfTheProposalId(address,uint256)":"908e45e3","transferOwnership(address)":"f2fde38b","withdrawCommission()":"3e25e837"},"id":34}